:020000040800F2
:10000000B00C002035020008031B0008B3120008E2
:10001000011B00087F040008912700080000000071
:10002000000000000000000000000000E5260008BD
:10003000810400080000000089250008E726000868
:100040004F0200084F0200084F0200084F0200084C
:100050004F0200084F0200084F0200084F0200083C
:100060004F0200084F0200084F0200084F0200082C
:100070004F0200084F0200084F0200084F0200081C
:100080004F0200084F0200084F0200080000000065
:100090000000000000000000000000004F02000807
:1000A0004F0200084F0200084F0200084F020008EC
:1000B0004F0200084F0200084F0200084F020008DC
:1000C0004F0200084F0200084F0200084F020008CC
:1000D0004F0200084F0200084F0200080000000015
:1000E0004F0200084F0200084F0200080000000005
:1000F0000000000000000000000000004F020008A7
:10010000000000004F0200084F0200084F020008E4
:1001100000000000000000000000000000000000DF
:100120004F0200084F0200084F0200084F0200086B
:100130004F02000800000000000000000000000066
:100140000000000000000000000000004F02000856
:100150004F0200084F0200084F0200084F0200083B
:100160004F0200084F0200080000000000000000DD
:10017000000000000000000000000000000000007F
:10018000000000004F020008000000000000000016
:100190004F02000800F002F800F03CF80AA090E8D6
:1001A000000C82448344AAF10107DA4501D100F032
:1001B00031F8AFF2090EBAE80F0013F0010F18BFC3
:1001C000FB1A43F0010318475C3F00007C3F00002E
:1001D000103A24BF78C878C1FAD8520724BF30C873
:1001E00030C144BF04680C60704700000023002445
:1001F00000250026103A28BF78C1FBD8520728BF37
:1002000030C148BF0B6070471FB502F075FB1FBDC2
:1002100010B510BD00F0FEF81146FFF7F5FF02F033
:10022000DFFA00F01CF903B4FFF7F2FF03BC00F0A3
:100230001FF900000948804709480047FEE7FEE72C
:10024000FEE7FEE7FEE7FEE7FEE7FEE7FEE7FEE786
:1002500004480549054A064B7047000081270008FD
:1002600095010008B0060020B00C0020B008002066
:10027000B008002053EA020C00F069802DE9F04B31
:100280004FF00006002B1FBFB3FA83F503FA05F405
:1002900024FA05F65E4012BF1643B2FA82F502FA5E
:1002A00005F4C5F120051EBF22FA05FC44EA0C0442
:1002B000203556EA044C4FEA144418BF641C4FF032
:1002C00000084FF00009904271EB030C39D300296C
:1002D00019BFB1FA81F701FA07F6B0FA80F700FA10
:1002E00007F6C7F120071EBF20FA07FC46EA0C06F6
:1002F0002037B6FBF4FCA7EB0507103F07F01F0BF8
:10030000CBF120060CFA0BFB2CFA06F644BFB346E1
:100310000026202FA4BF5E464FF0000B5BEA060CC0
:1003200008BF4FF0010B19EB0B09ABFB027C48EB4C
:100330000608C01B06FB02CC0BFB03CC71EB0C01C7
:10034000C1E70B46024641464846BDE8F08B13B56F
:100350004FF000004FF00001AFF30080BDE81C40FB
:10036000704702F0FF0343EA032242EA024200F030
:100370002CB84FF0000200B513469446964620393B
:1003800022BFA0E80C50A0E80C50B1F12001BFF44E
:10039000F7AF090728BFA0E80C5048BF0CC05DF8B4
:1003A00004EB890028BF40F8042B08BF704748BF02
:1003B00020F8022B11F0804F18BF00F8012B704776
:1003C0007047704770474FF000020429C0F0128058
:1003D00010F0030C3FF4CFAFCCF1040CBCF1020FD2
:1003E00018BF00F8012BA8BF20F8022BA1EB0C01CD
:1003F000FFF7C1BF5FEAC17C24BF00F8012B00F802
:10040000012B48BF00F8012B7047000000487047DF
:100410004C0600207546FFF7F9FFAE460500694619
:10042000534620F00700854618B020B5FFF710FFAF
:10043000BDE820404FF000064FF000074FF00008E5
:100440004FF0000B21F00701AC46ACE8C009ACE866
:10045000C009ACE8C009ACE8C0098D46704710B5CA
:100460000446AFF300802046BDE81040FFF7DBBE36
:1004700001491820ABBEFEE7260002007047FEE7E8
:100480007047000070B5044600F006F90546601C90
:1004900002D004480078044400F0FEF8401BA0425B
:1004A000FAD370BDB40000202DE9F84FDFF8B4A1F5
:1004B000002201240AF1040B03254FF00F090BF170
:1004C000040E00BF0B6804FA02F63340B34272D147
:1004D0000F7907F00307012F01D0022F16D187688B
:1004E0004FEA420805FA08FC27EA0C07D1F80CC0CD
:1004F0000CFA08FC4CEA070CC0F808C04768B74380
:100500000E79C6F3001696403E4346600E79F643D8
:10051000B6070DD0C768560005FA06FC27EA0C0797
:10052000D1F808C00CFA06FC4CEA070CC0F80CC065
:100530000E7906F00306022E10D1D60800EB8608CD
:10054000D8F8206057074FEAD76C09FA0CF7BE437A
:100550000F6907FA0CF73743C8F8207006684FEAAE
:10056000420C05FA0CF7BE430F7907F0030707FAB0
:100570000CF7374307604E68F6006DD53A4E376882
:1005800047F480473760366822F0030706F4804658
:100590000096364E07EB060CDCF8086897073F0F0D
:1005A00009FA07F826EA0806DFF8C480404503D1B7
:1005B0004FF000081EE04FE0DFF8B880404502D160
:1005C0004FF0010816E0DFF8B080404502D14FF04F
:1005D00002080FE0DFF8A480404502D14FF0030885
:1005E00008E0DFF89C80404502D14FF0040801E0AC
:1005F0004FF0070808FA07F848EA0608CCF8088818
:10060000DAF800605746D1F804C09E435FEACC3C5C
:1006100000D51E433E60DBF800605F46D1F804C0A1
:100620009E435FEA8C3C00D51E433E60DEF80060CE
:100630007746D1F804C09E435FEACC2C00D51E4318
:100640003E60084F0C373E68D1F804C09E435FEA15
:100650008C2C00D51E433E60521C102AFFF432AF92
:10066000BDE8F88F003C01404438024000300140B2
:10067000000002400004024000080240000C02405A
:10068000001002400069084000D0012070470AB104
:10069000816170470904FBE70148806870470000EA
:1006A000B400002070B5040025D094F83D0000256A
:1006B00020B984F83C50204600F050F9242084F8FA
:1006C0003D002068016821F0010101602068016897
:1006D00041F4004101602068016821F4004101609B
:1006E00000F096FA4D4A6168914201D84C4900E009
:1006F0004C49884201D2012070BD4B492368B0FBB0
:10070000F1F15E6826F03F060E435E606368934237
:1007100006D94FF4967359434FF47A73B1FBF3F152
:100720002368491C1E6A26F03F063143196261683E
:10073000914210D84900401EB0FBF1F2521CC2F3A6
:100740000B02042A01D2042022E0B0FBF1F0401C8D
:10075000C0F30B001CE0A268F2B301EBC10303EB92
:100760000116431EB3FBF6F35B1C43F480431B05E9
:1007700049D092B301EBC10202EB0111401EB0FB64
:10078000F1F0401CC0F30B0040F4804040F4004006
:100790002168CA694CF6FF739A431043C861D4E9D3
:1007A000071001432068026822F0C0021143016073
:1007B000D4E9030101432068826848F2FF339A4379
:1007C00011438160D4E9050108432168CA6822F019
:1007D000FF021043C86001E00EE016E020680168E7
:1007E00041F0010101602564202084F83D0025636B
:1007F00084F83E50002070BD01EB4106431EB3FB60
:10080000F6F35B1CB3E70120C2E701EB4101401E98
:10081000B0FBF1F0401CC0F30B00B7E7A08601006D
:1008200080841E0000093D0040420F002DE9FF4F6B
:1008300083B09A46DDE9119793460446DDF840807F
:10084000FFF72AFF054694F83D0020287FD11923A1
:10085000012240492046009500F0BEFD002876D1D7
:1008600094F83C00012872D0012084F83C002068F4
:100870000168C90703D1016841F0010101602068E6
:10088000016821F400610160212084F83D004020CE
:1008900084F83E0000262664C4F82480A4F82A9038
:1008A000608D20852C48E062CDE9007553465A469C
:1008B0002046049900F016FD70B930E02A4639460A
:1008C000204600F008FE58B1206C042804D12068AE
:1008D000016841F400710160012007B0BDE8F08FAC
:1008E000606A216800780861606A401C6062218D3E
:1008F000491E89B22185628D521E62852268536924
:10090000DB435B070BD469B100781061606A401C5F
:100910006062208D401E2085608D401E6085208D88
:100920000028CBD12A463946204600F02FFD00286A
:10093000CAD154F83D0B016841F4007101602020D8
:1009400004F81E09E67766770020C6E7FFE7022075
:10095000C3E70000020010000000FFFF10B586B0E2
:10096000044614216846FFF704FD134920688842B5
:1009700020D112480021026842F0020202600068A1
:1009800000F002000590C02000901220CDE9010186
:10099000032003900420049069460948FFF784FD72
:1009A00006481030016841F400110160006800F44D
:1009B0000010059006B010BD0054004030380240D1
:1009C0000004024002488168027811448160704747
:1009D000B40000200B4810B5016841F400710160BB
:1009E000016841F480610160016841F48071016037
:1009F000032000F061F8002000F006F800F024F871
:100A0000002010BD003C024070B50D4D04464FF46F
:100A10007A712878B1FBF0F00A490968B1FBF0F06F
:100A200000F033FC48B9102C07D200222146501E9A
:100A300000F022F800206C6070BD012070BD000045
:100A4000B4000020B00000200A4808B5016841F455
:100A500080410160006800F4804000900548001F5C
:100A6000016841F080510160006800F08050009002
:100A700008BD000044380240F0B40E4B1B680C4621
:100A8000C3F30223C3F10705042D00D90425191D62
:100A9000072901D2002300E0DB1E012606FA05F13A
:100AA000491E214099409E40761E16403143F0BCBD
:100AB00001F06FBE0CED00E0064900F00702086887
:100AC0004FF6FF03184040EA0220034A1043086033
:100AD000704700000CED00E00000FA052DE9F0473A
:100AE0000E46050065D0DFF81481D8F80000F7B293
:100AF00000F00700B04207D288F80070D8F8000074
:100B000000F00700B04254D128683D4C810712D54F
:100B1000400703D5206840F4E050206028780007A3
:100B200003D5206840F4604020602068A96820F068
:100B3000F000084320602878C0072DD0304968684D
:100B40000839012812D0022813D0032811D00968CF
:100B5000890700292DDA216821F003010143216072
:100B6000FFF79AFD814641F2883A0EE00968890351
:100B7000EFE709688901ECE7FFF78EFDA0EB0901BB
:100B8000514502D90320BDE8F0872068696800F06C
:100B90000C00B0EB810FEFD1D8F80010404601F007
:100BA0000701B14207D90770006800F00700B042A2
:100BB00001D00120E7E72878400705D52068E968DB
:100BC00020F4E050084320602878000706D520680C
:100BD000296920F4604040EAC100206000F028F854
:100BE0002168084AC1F30311515CC84006490860F6
:100BF00006480068FFF708FF0020C4E7003C0240F9
:100C0000083802400C410008B0000020B800002065
:100C10000448054900680968044AC1F38221515C0F
:100C2000C8407047B0000020083802401C4100084E
:100C3000154810B5006810F00C02144813D0144980
:100C4000042A0FD0082A0ED10F4C241F22682368D3
:100C500002F03F025B0207D52068C0F38810A0FBBA
:100C6000010106E0084610BD2168C1F38811A1FB0F
:100C700000010023FFF7FEFA2168C1F30141491C7E
:100C80004900B0FBF1F010BD083802400024F40028
:100C900040787D012DE9F84F04006ED02078DFF810
:100CA0004C93C007A9F104054AD009F1040001687A
:100CB000C1F38101012908D00068C0F38100022836
:100CC0000AD1D9F80000400206D52868800337D53C
:100CD00060680028E1D033E06068B0F5803F10D054
:100CE000B0F5A02F286810D020F480302860286844
:100CF00020F4802028606068A8B1FFF7CDFC06468C
:100D00000DE0286840F48030F4E740F4802028604B
:100D1000F7E700BFFFF7C0FC801B642873D8286882
:100D20008003F7D50CE0FFF7B7FC064605E000BFEF
:100D3000FFF7B2FC801B6428F0D828688003F7D442
:100D40002078DFF8AC8280074FF0000A3ED5A74834
:100D5000001D016811F00C0F08D00068C0F381007D
:100D600002280BD1D9F80000400207D42868800778
:100D700016D5E068012800D112E033E1E068B8B18F
:100D80000120C8F80000FFF787FC064605E000BF19
:100D9000FFF782FC801B0228C0D828688007F7D59F
:100DA0002868216920F0F80040EAC10028600DE0C1
:100DB000C8F800A0FFF770FC064604E0FFF76CFCE3
:100DC000801B02281FD828688007F7D420780007E6
:100DD00022D5864F87486169703771B10121016062
:100DE000FFF75AFC064604E0FFF756FC801B02287A
:100DF00009D838688007F7D50EE0C0F800A0FFF7E3
:100E00004BFC064605E082E0FFF746FC801B02280B
:100E10007DD838688007F7D42078400768D5DFF898
:100E2000CCB100270BF13C0BDBF80000C0000BD469
:100E3000DBF8001041F08051CBF80010DBF8000027
:100E4000012700F0805000906B4E3068C00510D430
:100E5000306840F480703060FFF71EFC009005E0C1
:100E6000FFF71AFC0099401A022850D83068C005D4
:100E7000F6D55E4EA0686C3601280FD00528306884
:100E800010D020F001003060306820F004003060A5
:100E9000A068B8B1FFF700FC00900FE0306840F0A8
:100EA0000100F4E740F004003060F7E7FFF7F4FBDF
:100EB0000099411A41F28830814266D83068800733
:100EC000F4D50EE0FFF7E8FB009007E0FFF7E4FB46
:100ED0000099411A41F28830814256D83068800723
:100EE000F4D42FB1DBF8001021F08051CBF80010C2
:100EF000A069C8B33D49091D0968C1F381010229F0
:100F00004AD00228504607D0C8F8600000E03CE014
:100F1000FFF7C2FB04463BE04746C8F86000FFF716
:100F2000BBFB064605E000BFFFF7B6FB801B0228AF
:100F30002BD828688001F7D4D4E907010843A16AB7
:100F40002E4A490802EB0141626A41EA82110843D4
:100F500094F82C1040EA0161C9F8001001203866AD
:100F6000FFF79AFB044606E03EE000BFFFF794FB64
:100F7000001B022809D828688001F7D534E000BF9B
:100F8000FFF78AFB001B022802D90320BDE8F88F77
:100F900028688001F4D427E00128F7D0D9F80000B0
:100FA000E26900F4800191421CD1226A00F03F0105
:100FB000914217D147F6C071626A0140B1EB821FBE
:100FC00010D1A26A4FF0FF3300F4403103EB52021C
:100FD000B1EB024F06D194F82C1000F07060B0EB2A
:100FE000016F01D00120D1E70020CFE70438024093
:100FF00000004742800E4742007000400000FFFFA3
:1010000070B5040009D0606A002540B125616561B2
:10101000A56294F8510040B10CE0012070BD6068F9
:10102000B0F5827FF4D0E561F2E784F850502046B5
:1010300000F044F8022084F851002068016821F093
:1010400040010160A088218900F4827001F404410C
:101050000843A18901F400610843217C01F00201E9
:101060000843217D01F001010843218B01F4007147
:101070000843217F01F03801084394F8201001F063
:1010800080010843218D01F4005108432168086064
:10109000A069042101EA104094F8241001F0100125
:1010A0000843216848602068C16921F40061C1617A
:1010B0006565012084F85100002070BD10B586B030
:1010C000044614216846FFF754F913492068884202
:1010D00020D112480021026842F480520260006868
:1010E00000F4805005900D481438026842F0010267
:1010F0000260006800F001000590E02000900220EE
:10110000CDE90101032003900520049069460448BD
:10111000FFF7CAF906B010BD003001404438024064
:10112000000002402DE9F84F044690F850000027D7
:101130001D461646894601280DD04FF0010B84F854
:1011400050B0FFF7A9FA804694F85100BA4601283A
:1011500004D0022793E00220BDE8F88FB9F1000F18
:1011600073D0002E71D0032084F85100C4F854A02D
:10117000C4F83090A686E686C4F838A0A4F83CA04F
:10118000A4F83EA0C4F844A0C4F840A0A068B0F5FC
:10119000004F09D12068016821F0400101602068FA
:1011A000016841F48041016020680168490603D468
:1011B000016841F040010160E068B0F5006F6068CF
:1011C00003D030B3012E24D041E008B1012E1CD150
:1011D000206B21680088C86006E020688168890764
:1011E00009D5216B0988C160206B801C2063E08ECB
:1011F000401EE08609E0FFF74FFAA0EB0800A84286
:1012000002D3681C01D031E07DB3E08E0028E4D128
:1012100020E0206B21680078087306E02068816870
:10122000890709D5216B09780173206B401C206365
:10123000E08E401EE0860AE0FFF72EFAA0EB0800E1
:10124000A84203D3681C02D010E017E06DB1E08E15
:101250000028E3D142462946204601F0BBF908B1F7
:1012600020206065A06818B106E0FFE7032706E0CC
:101270002068C16880680090606D00B1012784F823
:1012800051B084F850A0384666E710B5401EB0F162
:10129000807F01D3012010BD4FF0E02460610F2159
:1012A000601701F076FA0020A0610720206100207D
:1012B00010BDFEE701684A69D24352050FD46FF4AE
:1012C00080624A61002140F8301F202242738173FE
:1012D000026942F00402026101730120704700209C
:1012E000704700002DE9F843044600680D46DDE92B
:1012F000089701689846164641F4807101604B4694
:1013000000224FF001112046009700F065F848B127
:1013100020680068C00502D54FF4007020640320E7
:10132000BDE8F883216805F0FE0008613B464A46A7
:101330001549204600F084F888B920684169806921
:1013400000903A464946204600F0C5F848B1206C66
:10135000042804D12068016841F400710160012073
:10136000DEE7F5B2B8F1010F09D02168300A086153
:101370003A464946204600F0AEF80028E7D12068FA
:1013800005610020CCE700000200010070B51646A0
:101390000D4604460DE02046FFF78CFF08B1012002
:1013A00070BD681C05D0FFF777F9801BA84207D8ED
:1013B00035B120684069C0434007ECD4002070BDBF
:1013C000002044F8300F20216173A073216941F09F
:1013D000200121612073E2E72DE9F0471E46904687
:1013E0000D460446C1F30747DDF8209008E0701C65
:1013F00006D0FFF751F9A0EB0900B0420FD876B143
:101400002068012F18D0806925EA00000004000C34
:1014100014D000214145EAD00020BDE8F08700202B
:1014200044F8300F20216173A073216941F020013D
:10143000216120730120F0E74069E5E70121E9E738
:101440002DE9F0479A4691460E46044600254FF096
:101450002008C1F3074725E020684069C0434005E4
:1014600014D42068016841F40071016021686FF4B0
:1014700080604861256384F83D8084F83E50206C8C
:1014800040F00400206484F83C501FE0B9F1FF3FB5
:1014900008D0FFF701F9A0EB0A0149450CD8B9F1D2
:1014A000000F09D02068012F13D0806926EA0000C0
:1014B0000004000C0BD0CFE744F8305F84F80D80B7
:1014C000A573206940F02000206125730120BDE84C
:1014D000F0874069EAE770B516460D4604460DE010
:1014E0002046FFF7E7FE08B1012070BD681C05D05B
:1014F000FFF7D2F8801BA84207D835B120684069B1
:10150000C0430006ECD4002070BD002044F8300F2A
:1015100020216173A073216941F0200121612073B2
:10152000E2E72DE9F84F1746DDE91021DDE90A5B16
:10153000C0B2DDF838900C9E1C464FF000080FFA40
:1015400082FA009002296DD001294FF001007CD071
:10155000A8470120A0470020A0470120B84701204C
:10156000A8470120A0470120B0470020A847052038
:10157000B0470020A0470120B8470020A0478020A6
:10158000009920FA08F010EA410000D00120A84795
:101590000120B0470120A0470520B04708F1010015
:1015A0004FFA80F8B8F1080FE7DB0020A0470020D1
:1015B000B8470120A8470120B0470120A047504666
:1015C000B047D84701287ED00020A0470120B84767
:1015D0004FF000080020A04780200D9920FA08F065
:1015E000084000D00120A8470120B0470120A047B3
:1015F0000520B04708F101004FFA80F8B8F1080F54
:10160000E8DB0020A0470020B8470120A8470120C0
:10161000B0470120A0475046B047D8470128D2D054
:10162000002085E10120A8470120A0470020A04715
:101630000120B8470120A8470120A0470020A84763
:101640000020A0470120B84700E092E00020A0471A
:101650008020009920FA08F010EA410000D0012013
:10166000A8470120A04708F101004FFA80F8B8F11F
:10167000080FE9DB0020A0470020B8470120A84759
:101680000120A0475046B047D847012829D0002064
:10169000A0470120B8474FF000080020A047802055
:1016A0000D9920FA08F0084000D00120A847012039
:1016B000A04708F101004FFA80F8B8F1080FECDB01
:1016C0000020A04700E049E10020B8470120A847DA
:1016D0000120A0475046B047D847012801D000203C
:1016E00037E00020A0470120B8470020A84701208C
:1016F000A0470120A8473FE1A0470120B8474FF08D
:1017000000080020A04799F80010802020FA08F077
:10171000014201D0012000E00020A8470120A0479D
:1017200008F101004FFA80F8B8F1080FE9DB00205A
:10173000A0470020B8470120A8470120A0475046F5
:10174000B047D8470128CCD0009809F10109401CC6
:1017500080B200900F9988424FF00000CCD3A04790
:101760000120B8470020A8470120A0470120A84732
:10177000F1E0A8470120A0470020A0470120B8477A
:101780000120A8470120A0470020A8470220B04719
:101790000020A0470120B8470020A04780200099E2
:1017A00020FA08F010EA410000D00120A8470120EB
:1017B000A0470220B04708F101004FFA80F8B8F1C5
:1017C000080FE9DB0020A0470020B8470120A84708
:1017D0000120A0475046B047D847012829D0002013
:1017E000A0470120B8474FF000080020A047802004
:1017F0000D9920FA08F0084000D00120A8470120E8
:10180000A0470220B04708F101004FFA80F8B8F174
:10181000080FEADB0020A0470020B8470120A847B6
:101820000120A0475046B047D847012801D00020EA
:101830003AE00020A0470120B8470020A847012037
:10184000A0470120A847022095E0A0470120B84703
:101850004FF000080020A04799F80010802020FADF
:1018600008F0014201D0012000E00020A84701203B
:10187000A0470220B04708F101004FFA80F8B8F104
:10188000080FE7DB0020A0470020B8470120A84749
:101890000120A0475046B047D8470128C9D000983A
:1018A00009F10109401C80B200900F9988424FF065
:1018B0000000CAD3A0470120B8470020A847012054
:1018C000A0470120A847022044E0A0470120B847D4
:1018D0004FF000080020A04799F80010802020FA5F
:1018E00008F0014201D0012000E00020A8470120BB
:1018F000B0470120A0470520B04708F101004FFA8A
:1019000080F8B8F1080FE5DB0020A0470020B847B9
:101910000120A8470120B0470120A0475046B0470A
:10192000D84701281AD0009809F10109401C80B25B
:1019300000900F9988424FF00000C6D3A0470120C5
:10194000B8470020A8470120A0470120B047012048
:10195000A8470520B0470120BDE8F88F0020A04728
:101960000120B8470020A8470120A0470120B04728
:101970000120A8470520B0474FF0FF30ECE72DE9E4
:10198000F05F0446DDE90A7B88469246002600F0B7
:10199000FCFD51460020884717E000254FF08009E4
:1019A0000020A047397829FA05F00142414601D0CC
:1019B000012000E0002088470120A0476D1C6DB287
:1019C000082DEDDB761CB6B27F1C5E45E5D3D44610
:1019D000BDE8F04F01205DF804EB60472DE9F843C6
:1019E00006460F4614469846089D00F0CEFD00209E
:1019F000A0474346224639463046009500F0D1FDC7
:101A000001B0A446BDE8F043012060472DE9F04154
:101A100086B014216846FEF7ACFC26480024016815
:101A200041F080010160016801F0800105910168C9
:101A300041F001010160016801F0010105910168B7
:101A400041F00201016000681B4F00F002000590A8
:101A5000002218213846FEF71AFEDFF8608040F2B7
:101A60000546002231464046FEF711FE01220221C2
:101A70004046FEF70CFE182000900125CDE90154E8
:101A8000694638460394FEF70FFD0096CDE90154F0
:101A9000694640460394FEF707FD0220CDE90005A4
:101AA0000320CDE9024069464046FEF7FDFC06B042
:101AB000BDE8F081303802400000024000040240DE
:101AC0000E4810B50C4901604FF48271416000214D
:101AD0008160C1604FF400720161C0E90512C1610B
:101AE0000162416281620A21C162FFF789FA00281E
:101AF00001D072B6FEE710BD00300140F4050020B1
:101B0000FEE7FEE72DE9F84F89461646010000D5AD
:101B10004142CA1701EB527222F00702A1EB020AFE
:101B2000C11700EB5171DF084FEAE10819EB060F0E
:101B30006DD4B9F17F0F6ADCD84268D43F2866DCE7
:101B4000002803DAA8F10108CAF1080A580700D0F2
:101B50007F1C002559E000BF08EB050BBBF1070F08
:101B600055DC1BF1020F4FDD00244BE004EB0900B4
:101B70007F2849DC002844DBBBF1000F1ADB00F0B2
:101B800029FE012845D000F025FE002809EB0401BC
:101B9000584600914CD000F085FE0A9A05FB06F1EC
:101BA0002244895C01FA0AF14140CAB200995846C0
:101BB00000F092FEBAF1000F23D0BBF1070F20DA3C
:101BC0001BF1020F1DDD00F005FE01283DD000F0E5
:101BD00001FE002809EB04010BF10100009145D042
:101BE00000F060FE0A9A05FB06F122448A5CCAF105
:101BF0000801CA4092EA00020BF10100009900F0CE
:101C00006BFE641CB442B1DB6D1CBD42A4DBBDE8BD
:101C1000F88F09EB04015846009100F043FE0A9941
:101C200005FB06F22144515C01FA0AF10143BCE7CD
:101C300000F038FE0A9905FB06F22144515C01FAD6
:101C40000AF120EA01020099B1E709EB04010BF166
:101C50000100009100F026FE0A9A05FB06F12244DD
:101C60008A5CCAF10801CA400243C5E700F01AFEC7
:101C70000A9A05FB06F12244895CCAF10802D140A8
:101C800020EA0102B8E7000002460B4890F9030081
:101C900000EB40010848001D00EB81004168086A24
:101CA000002807D0898C012A02D00022FEF7EFBC61
:101CB0000122FBE7704700000C0000202DE9F047EF
:101CC00016468846044607283CD8DFF87C90B8F1D1
:101CD000700F37D833E000204FEA090100EB001302
:101CE00011F81350954225D101EB430775787B78A5
:101CF000AB421FD1002503E0102D01D1641CE4B2DA
:101D0000781905F00F0182784144204600F0E4FD87
:101D10006D1CEDB2202DEFD308F11000641E00F011
:101D2000FF08E4B2B8F1700F08D9A41CE4B24FF078
:101D3000000803E0401CC0B27528CFD3B61C32782F
:101D4000002AC8D1BDE8F0870229000810B500209C
:101D500000F00CF8012000F009F8022000F006F86D
:101D6000BDE81040032000F001B8704770B5184C72
:101D70000646A078012823D10025A57000F03CF983
:101D800084F8035000F064F900F054FAE078401C45
:101D900040B2E0700428F5DB84F8035000F0A0F8AE
:101DA000E078401C40B2E0700428F7DB84F8035070
:101DB00000F0E8F9E078401C40B2E0700428F7DB5E
:101DC000E67000F059F9BDE8704000F06BB8000013
:101DD0000C00002002460848011D90F90300012A6A
:101DE00000EB400001EB800041680868898800D062
:101DF0000022FEF74CBC00000C0000200246084800
:101E0000011D90F90300012A00EB400001EB800066
:101E100041680868898800D00022FEF738BC0000BD
:101E20000C00002070470000064890F9030000EB0A
:101E300040010448001D00EB8100406881898068F2
:101E4000FEF720BC0C00002002460848011D90F956
:101E50000300012A00EB400001EB80004168886824
:101E6000898900D00022FEF712BC00000C0000207F
:101E70007047000002460848011D90F90300012A3E
:101E800000EB400001EB800041688868898900D040
:101E90000022FEF7FCBB00000C000020002000F038
:101EA00089BC000010B5FFF7F9FF034890F9030063
:101EB000BDE8104000F0B6B90C00002070B5002459
:101EC0000546E0B2002100F083F940228021284637
:101ED00000F0AAFA641C64B28035082CF1DB70BDF6
:101EE00070B5444D2C1D95F90300224600EB4000CF
:101EF00014F8201002EB800031B1012904D002292E
:101F000076D14178F1B359E0417889B9406801222E
:101F100081880068FEF7BBFB95F90300012200EB06
:101F2000400004EB8000406881898068FEF7AFFBC9
:101F300095F9030000EB400014F82010012957D157
:101F400004EB80004168086918B1898A0022FEF715
:101F50009EFB95F9030000EB400004EB8002516802
:101F6000886938B19268898B12783C2A3DD0012269
:101F7000FEF78DFB95F9030000EB400004EB8000B9
:101F8000416800E008E0086A002831D0898CBDE88B
:101F900070400122FEF77BBB406801228188006807
:101FA000FEF775FB95F90300012200EB400004EBFE
:101FB0008000406881898068FEF769FB95F903001D
:101FC000012200EB400004EB80004068818B8069B7
:101FD000FEF75DFB95F9030000EB400004EB800089
:101FE000416808690028C5D0898A0022C0E7FFE758
:101FF00070BD00000C00002070B51348114901238A
:1020000040F8381F022483808160848104220161AA
:1020100082820E4A082582618583102602628684A8
:102020000264A0F844508264A0F84C600165A0F8F6
:1020300054308165A0F85C4001660915A0F8641071
:1020400070BD000000040240C004002000000240F7
:102050000748084A90F9030000EB800102EBC10138
:10206000034A00EB4000121D02EB80004160704704
:102070000C000020C004002010B50021AE2000F0AC
:102080002BF90021A42000F027F90021A62000F060
:1020900023F90021812000F01FF90021FF2000F02A
:1020A0001BF90021202000F017F90021022000F088
:1020B00013F90021B02000F00FF9314890F9030026
:1020C00000EB40012E48001D00EB8100807810B12C
:1020D000012803D006E00021084601E0002102208B
:1020E00000F0FAF80021102000F0F6F8002140205E
:1020F00000F0F2F80021A82000F0EEF800213F20C7
:1021000000F0EAF80021D32000F0E6F800210846AC
:1021100000F0E2F80021DA2000F0DEF800211220C1
:1021200000F0DAF80021A12000F0D6F80021C82044
:1021300000F0D2F80021D52000F0CEF80021F020E8
:1021400000F0CAF80021D92000F0C6F80021F120E3
:1021500000F0C2F80021DB2000F0BEF800213020A2
:1021600000F0BAF800218D2000F0B6F8002114200C
:1021700000F0B2F80021BDE81040AF2000F0ACB88C
:102180000C00002070B5114C251D94F9030000EBE4
:10219000400005EB800041680869002814D0898A56
:1021A0000022FEF774FAC820FEF76CF994F90300D8
:1021B000012200EB400005EB80004068818A006945
:1021C000BDE87040FEF763BA70BD00000C0000204F
:1021D00010B50C46B030C0B2002100F07DF80D48BB
:1021E00090F9030000EB40010A48001D00EB81005C
:1021F000817804F00F0019B1012903D10021801C5E
:1022000000F06AF8102000EB1410BDE81040002127
:1022100000F062B80C0000200149C870704700004F
:102220000C00002010B5FFF7F7FFBDE8104000F0EC
:1022300047BB000070B51D4890F9031001EB410247
:10224000011D01EB82035C78002C16D111F82210DD
:10225000174C99B1012911D002290ED1164990F9D4
:102260000120144D01EB0211521C0D60134D4D6005
:10227000134DC1E902549960427070BD90F900207D
:102280000A49C2EBC206343101EB86010D4D4D60A7
:102290000D4D8D600D4DCD600D4D0D610D4DC1E9A4
:1022A0000554521C9960027070BD00000C000020A3
:1022B0006B1D0008D51D000860050020751E000874
:1022C000891C0008251E0008711E0008FD1D00085D
:1022D000491E0008291E0008F3B5504D0E462C1D5E
:1022E00095F9030089B000EB40004FF4807714F8B3
:1022F000201029B3201F224690F90300012900EB8A
:10230000400002EB800014D002297CD14068402EAE
:10231000818B80694ED00022FEF7B9F995F9030050
:1023200000EB400004EB80004178E9B301294BD079
:1023300064E04168086A18B1898C0022FEF7A7F9A9
:1023400095F90300012200EB400004EB800109AB8A
:10235000487810B1012812D01AE002200027CDE9F8
:102360000670CDE9043203968868103090E80E00BC
:102370008DE80E0010380FC8FFF7D3F808E0CDE95C
:10238000003202970123324678212548FEF74EFAA3
:1023900095F9030000EB400014F8201001293BD10F
:1023A00004EB8000416800E006E0086A002833D0B2
:1023B000898C2EE00122AFE79DF8241000918068FF
:1023C0000FC8FFF70BFB19E04168086A18B1898C48
:1023D0000022FEF75CF93B46012209A91148FEF7ED
:1023E000A1FE95F9030000EB400004EB800041687A
:1023F000086A18B1898C0122FEF749F995F90300A2
:1024000000EB400000E007E004EB80004068818BB7
:1024100080690122FEF73BF90BB0F0BD0C000020F3
:10242000A0050020F40500202DE9F043534D064699
:102430002C1D95F903000F4600EB400089B014F8FD
:10244000201090464FF4807931B3201F224690F936
:102450000300012900EB400002EB800015D00229A7
:102460007ED14068B8F1400F818B80694ED0002248
:10247000FEF70DF995F9030000EB400004EB800036
:102480004178E9B301294AD063E04168086A18B18C
:10249000898C0022FEF7FBF895F9030000EB400061
:1024A00004EB8001487810B1012812D01CE0022012
:1024B0000022CDE90620CDF80C80CDE904678868BC
:1024C00000F110020ECA8DE80E000FC8FFF729F8C0
:1024D0000AE08021CDE9006101234246CDF8089051
:1024E00078212748FEF7A2F995F9030000EB400098
:1024F00014F8201001293DD104EB8000416800E070
:1025000006E0086A002835D0898C2DE00122AFE76B
:10251000CDE9006780680FC8FFF731FA19E041681C
:10252000086A18B1898C0022FEF7B1F84B463A468A
:1025300031461448FEF7F6FD95F9030000EB400024
:1025400004EB80004168086A18B1898C0122FEF70B
:102550009EF895F9030000EB400004EB800000E0DA
:1025600008E04068818B806909B00122BDE8F04332
:10257000FEF78DB809B0BDE8F08300000C00002024
:10258000A0050020F4050020704770B504460D46F4
:10259000012090470120A847A446BDE870400120D3
:1025A00060472DE9F0410446069F0E4600254FF096
:1025B00080080020A04728FA05F0384000D001200C
:1025C000B0470120A0476D1C6DB2082DF1DBBDE8BE
:1025D000F081000038B504461248134B0068B0FB88
:1025E000F3F04FF47A73584300906068B0F5827F3F
:1025F0000DD10B46009200228021204600F016F8F3
:1026000070B1606D40F020006065032038BD009817
:1026100030B1401E009020688068C0430006F6D5A7
:10262000002038BDB000002000366E012DE9F843CF
:102630001E46914688460446089DFEF72DF8401B2D
:10264000351AFEF729F8074625480068C0F3CB3055
:10265000684338E0701C37D0FEF71EF8C01BA84254
:1026600003D215B1009860B32CE02068416821F0D6
:10267000E00141606068B0F5827F0BD1A068B0F5E1
:10268000004F02D0B0F5806F04D12068016821F0BE
:1026900040010160A06AB0F5005F09D120680168BF
:1026A00021F4005101602068016841F4005101608B
:1026B000012084F85100002084F850000320BDE878
:1026C000F8830025401E00902068816838EA0100E8
:1026D00004D000214945BDD10020F0E70121F9E7F0
:1026E000B00000207047FEF76DB9000030B593B020
:1026F00030216846FDF73DFE14210CA8FDF739FE98
:102700001D480025016841F080510160006800F01B
:10271000805011901948016821F4404141F4004172
:1027200001600068022400F44040119001200090F4
:10273000000401908001CDE9064019200890A820EE
:10274000CDE9090404200B906846FEF7A3FA08B10E
:1027500072B6FEE70CA90F2081E831004FF48050DB
:10276000CDE90F0502210CA8FEF7B8F9002801D029
:1027700072B6FEE713B030BD403802400070004032
:102780000248016841F470010160704788ED00E083
:10279000FEE70907090E002804DB00F1E02080F8BD
:1027A0000014704700F00F0000F1E02080F8141DC5
:1027B0007047000002460548054990F9000001EB0A
:1027C00080204FF48061FDF7CCBD000000000020A8
:1027D000C00000200148007870470000040000207D
:1027E00008B5FEF7F7F8FFF781FFFFF70FF9264866
:1027F00024494FF4804201602449416000218160F6
:10280000C0E9031241618161C1610162FDF74AFFC4
:1028100008B172B6FEE7FFF753F9FFF797FA1C4EBF
:102820001C4C1D4DFFF73AFB00212823802208464F
:102830000096FFF767F90020FFF7F4FCFFF72EFB87
:1028400000214023802208460094FFF75BF9012015
:10285000FFF7E8FCFFF722FB402300211A46084659
:102860000095FFF74FF90220FFF7DCFCFFF716FB9E
:102870000AA210210020FFF721FA0320FFF7D2FC63
:10288000D0E7000000540040A0050020801A060098
:102890008C3A00080C3D00088C380008B2E2CAD41B
:1028A00000000000054B044A93F9003002EB83223C
:1028B00002EBC010405C7047C00000200000002008
:1028C0000348044990F9000001EB8020FFF7F6BAB5
:1028D00000000020C000002010B5054B054C93F906
:1028E000003004EB832303EBC010425410BD000002
:1028F00000000020C00000204FF04070E1EE100A00
:1029000070473C000080C0E0F0F8BC8C8480808080
:1029100080800000000103070F1F3D3121010101EC
:10292000010100003E00008080808080808088B8A7
:10293000F8F0E0C080000001010101010101111D5A
:102940001F0F07030100A1FB8080C0C0E0A09080A2
:1029500080808080808080000000010103020400EC
:102960000000000000000000A1FA808080808080CC
:10297000808090A0E0C0C0808000000000000000C7
:1029800000000402030101000000A1FC000000009F
:1029900040301CFF1C304000000000000000000020
:1029A000000000FF0000000000000000A1FD00008A
:1029B0000000000000FF0000000000000000000018
:1029C0000000020C38FF380C020000000000A1E3F8
:1029D00000000C12120C00000000000000000000BB
:1029E00000000000000000000000000000000000E7
:1029F000A996000000000000000000000000000098
:102A000000000000000000000000000000000000C6
:102A10000000B7E70000FE021222C202C23202FE2C
:102A20000000000080601F0020100C030C30000F1D
:102A30003040F800B0E51010D0FF901000FC24E406
:102A4000242223E20000040300FF0083601F804172
:102A5000261826418000BFD8101010FF90209848FB
:102A600028090E2848A818000242817F00404042F1
:102A700042427E4242424000D6C640504E4848FF45
:102A800048484840F80000FF000000003E0202FFF6
:102A900012221E000F40807F0000CFB500002232BE
:102AA0002AA6A2622111098101000000004222131E
:102AB0000B42827E02020A1223460000CDB3203070
:102AC000AC63300088C8A8998E88A8C8880022679F
:102AD0002212128040300F00003F40407100BDC7FD
:102AE0002010E824272424E424342C20E0000000D3
:102AF00080601F090909097F090949897F000000D1
:102B0000B6C80000FC242424FC252624FC2424240C
:102B1000040040308F80844C55252525554C8080FD
:102B20008000B2E21060028C00FE02F202FE00F8A9
:102B300000FF000004047E018047300F102700478B
:102B4000807F0000C1BF202020BEAAAAAAAAAAAAEC
:102B5000AABE20202000008080AFAAAAAAFFAAAAAD
:102B6000AAAF80800000C1A6001010101010FF1046
:102B700010101010F0000000008040201806010026
:102B8000204080403F000000B6AF4044C44444446D
:102B9000401010FF101010F00000103C131014B87B
:102BA00040300E014080403F0000CCAC00048484E3
:102BB0004424548F142444848404000041390000C8
:102BC0003C4040424C40407004093100C9C80000FC
:102BD000FC242424252624242424243C00004030E2
:102BE0000F211549817F00211549817F0000B5B172
:102BF000004042445840407F40405048C6000000DA
:102C0000004044444444444444444444FF000000DD
:102C1000C7B00808E8292E28E80808C80C0BE808FF
:102C200008000000FF0949897F00000F40807F00F5
:102C30000000CAB100FC848484FC00101010101045
:102C4000FF101000003F1010103F000001064080F0
:102C50007F000000BCE400F8010600F0121212F23E
:102C6000020202FE000000FF0000001F1111111FF0
:102C70000040807F0000C9E8404042CC0040A09E58
:102C80008282829EA02020000000003F9088404366
:102C90002C10284641808000B6A8100C44444444BF
:102CA00045C64444444444140C008040201E204047
:102CB000407F4444444444404000BEE0003E22E2A1
:102CC000223E00FE2222222222E20200203F201F7A
:102CD0001111007F4444444444474000C0EB0404C5
:102CE00004F484D4A5A6A4D484F40404040000FE4F
:102CF0000202123A1613121A3242827E0000BFAA52
:102D000080828282FE8282828282FE828282800031
:102D1000008040300F0000000000FF0000000000B5
:102D2000CABC1010F01F10F00040E058474050603F
:102D3000C0004022150816210000FE42424242FE19
:102D40000000CDA38060F807000474545556545415
:102D5000740400000000FF0003010545857D0505A2
:102D600005010300D6B9000000F0000000FF40405C
:102D70004040400000004040407F4040407F404095
:102D8000404040404000B7B5404042CC0000FC24E9
:102D9000A4242222A36200000040201F2058475094
:102DA0004845424548504000BBD80000FE0202F2B0
:102DB000121212F20202FE00000000007F20202703
:102DC0002424242720207F000000BDE12030AC63B4
:102DD0002018084848487F484848080022672212BF
:102DE000121200FE4242424242FE0000B9B91010E7
:102DF000D0FF901040300FC8080808F80000040306
:102E000000FF0003000C0B084A9C403F0000CCE58B
:102E1000008060F807101010D0FFD01010100000D4
:102E2000010000FF1008040B08FF080B0408100045
:102E3000D6B8101010FF1090003F48484444444258
:102E400070000444827F010000FF4949494949FF5D
:102E50000000D5EB402038E7242444404040FF40A8
:102E6000404040000101017F211109000000FF00E6
:102E700000000000B2CB040444C44F4444C42424E2
:102E80002FB42404040040442424150C04FE040C34
:102E9000152424444000B5A50000F8494A4C48F8E0
:102EA000484C4A49F800000010101312121212FF89
:102EB0001212121213101000CCE28080BEAAAAAA2D
:102EC000BE8002F21AD612F2020080601C207F44FB
:102ED0004444504B4443444B5000C4BF0000FE22C6
:102EE0002222222222222222FE0000000000FF4293
:102EF0004242424242424242FF000000B9A6080854
:102F000008F80808081010FF101010F0000010302A
:102F1000101F088848300E014080403F0000C4DC8C
:102F200008CC4A49484ACC18007F88888482E0004F
:102F300000FF121252927F00007E88888482E00097
:102F4000B2CE002020A86C2A3928A82A6CA82020FC
:102F5000000002828190924A494524221008010211
:102F60000200CAFD90523410FF10345280708F0856
:102F700008F80800829A566322528E008040330C73
:102F800033408000C9E8404042CC0040A09E82828D
:102F9000829EA02020000000003F908840432C101B
:102FA000284641808000D6C3001715D55557557D5A
:102FB000555755D5151700004040407F555555557C
:102FC0005555557F40404000BCE000007E0000FFAA
:102FD0000040300F04146404000040407E42427EF2
:102FE0004242427E42427E404000BFD8101010FF55
:102FF0009020984828090E2848A818000242817F8E
:103000000040404242427E4242424000CFD4000053
:1030100000FE92929292929292FE00000000404234
:103020004458407F4040407F405048464000CABE20
:1030300040404242424242C242424242424040003A
:10304000201008060040807F0000000204083000C5
:10305000B5F74042CC0000FE829292FE929282FE30
:10306000000000003F10887F001E1212125E807F59
:103070000000CAD4404042CC009090909090FF1045
:10308000111610000000003F1028603F1010010EC4
:103090003040F000B8A8C8B88FE8888804E4242439
:1030A000FF2425E60400081808FF040400FF0909AE
:1030B0007F0989FF0000D6FA00FE222222FE0000CE
:1030C0001010FF1010F00000203F2121111F904030
:1030D00020184780403F0000BBF900040404FF545F
:1030E00054545454FF040404000011118985939131
:1030F00091FD9191938589111100B4A10484E45C40
:1031000044C4007C4040FF40407C000002017F102E
:10311000103F007E40407F4040FE0000B2BF404470
:103120005465464464544440FE0222DA060000001E
:103130007E222222227E0000FF0810080700B7D658
:10314000804020908886808080838C102040800082
:10315000008040201807004080403F000000000031
:10316000B7A20000181610D0B897909090929410C3
:1031700000000020108C83804146281028444380A2
:103180008000BBD3101010FF10982622E23AA22232
:10319000222A06000444827F011010131212FF122B
:1031A00012121000D6C640504E4848FF48484840CA
:1031B000F80000FF000000003E0202FF12221E0085
:1031C0000F40807F0000C1E90000829292929292AB
:1031D00092929292FE0000008080484620100807DC
:1031E0000810284640808000C3F408F71454941453
:1031F000F40480708F0808F808001D1311559951C8
:103200003F914120130C33408000B6C80000FC24DD
:103210002424FC252624FC242424040040308F8010
:10322000844C55252525554C80808000C4A3101062
:10323000D0FF9014E4AFA4A4A4AFE40400000403FE
:1032400000FF00894B2A1A0E1A2A4B888000CABD3B
:10325000101090909090901010FF10101116100008
:10326000002060203F10101000030C102040F800D8
:10327000B4AE00003C24242424FF242424243C0055
:103280000000001F0909090909FF09090909091FA7
:103290000000BFDA0000FC04040404040404040475
:1032A000FC00000000007F20202020202020202083
:1032B0007F000000B4AB008060F807404848E85F3A
:1032C000484848404000010000FF0000020B122265
:1032D000D20A06000000B8D00000FC04D4545454B4
:1032E000D4047F84C536040088660100638282921C
:1032F000AB8482C10224CF00C6F780809E92929256
:103300009EE0809EB2D2929E80000808F494929231
:10331000F10001F2929494F80800D4CB404042CCE2
:1033200000202222A2622222222000000040201F30
:1033300020444E4544444445464C4000D0D0001003
:1033400088C4330040424242C2424242400002012D
:1033500000FF0000000040807F0000000000D7B4A4
:1033600000083000FF20202020FF2020222C2000F9
:1033700004040201FF8040300E0106182040800046
:10338000CCAC000484844424548F142444848404E6
:103390000000413900003C4040424C40407004096C
:1033A0003100B2E21060028C00FE02F202FE00F870
:1033B00000FF000004047E018047300F1027004703
:1033C000807F0000BEDD1010FF109000FE929292F0
:1033D000F292929E800042827F0180601F00FC4436
:1033E000474444FC0000D2A3404042CC00004A3293
:1033F000222AF121312D00000080403F408081BD14
:10340000A1A1BFA1A1BD8100B8FC00C0F0781C0C37
:103410000E06060E0C1C78F0C00000030F1E38309C
:103420003000003F3E3C3E372300D1A1404042CC1B
:1034300000504EC8487FC848484000000040201F48
:1034400020504C4340404F50505C4000D4F110108D
:10345000FF100082864A52A2524A86808000428231
:103460007F010010121212FF121212100000D5FB81
:103470000474D454FF54D47414087784443C040076
:10348000828988E88B8888F9A8AAA9A8A98A8200D5
:10349000C7D0404040FF2020200404FC040404FC6A
:1034A00000000000001F0884422018074080403FB1
:1034B0000000BBBB101010FF902010E82724E4345C
:1034C0002CE000000242817F00848447241C071CFA
:1034D00024478400C0EB040404F484D4A5A6A4D437
:1034E00084F40404040000FE0202123A1613121AB5
:1034F0003242827E0000BFAA80828282FE82828265
:103500008282FE8282828000008040300F000000B4
:103510000000FF0000000000CCE1101010FF109030
:1035200000FE9292929292FE00000444827F0180FB
:10353000423A4282FE9292928200BDAB0008300075
:10354000FF008884532212CA06000000040402010E
:10355000FF00020A1242827F02020200BBE14040E9
:10356000202050484443444850202040400000025E
:1035700042E2524A464242425262C2020000D6F73A
:1035800000080808080809FA0808080808080000E0
:10359000404041414141417F414141414140400022
:1035A000BDE7000000FE929292FE929292FE000011
:1035B000000008080484621E010001FE02040408E1
:1035C0000800C3E60202E22222F22E2222E2222296
:1035D000E20202000000FF40407F4949497F40402D
:1035E000FF000000C4E3008060F8074020180F08C7
:1035F000C80808281800010000FF00100C034080D4
:103600007F0001061800C8B70484E45C44C420109D
:10361000E82724E4342CE00002017F10103F806092
:103620001F09093F49897F00B6A8100C444444444F
:1036300045C64444444444140C008040201E2040AD
:10364000407F4444444444404000D2AA0002F292E5
:1036500092FE929292FE9292F202000000028292F8
:103660009A566322324A464282020000C2F000FCAF
:103670000404FC0002F2828282FE80800000000FBF
:1036800004040F00080808084888403F0000B7B548
:10369000404042CC0000FC24A4242222A36200006B
:1036A0000040201F205847504845424548504000A0
:1036B000BBD80000FE0202F2121212F20202FE0059
:1036C000000000007F2020272424242720207F00C2
:1036D0000000C8FD000484848484848484848484F9
:1036E00084040000202020202020202020202020D2
:1036F00020202000BDC72010E824272424E42434FF
:103700002C20E000000080601F090909097F0909D9
:1037100049897F000000D0CE808282FE8282FE82B4
:1037200082802010088660008040300F0000FF007B
:103730000080844221100C00D5FD000202C202026A
:1037400002FE82828282820200004040407F40402E
:10375000407F4040404040404000B7BD0808080856
:1037600008F8898E8888888808080800008040202A
:10377000180700004080403F00000000D4B200FE67
:103780000282BAAAAAAAAAAABA8202FE000000FF6E
:10379000404F605048464850604F40FF0000B0EB3B
:1037A00000004244584040FF40405048460000005E
:1037B00004040404040404FF0404040404040400D2
:1037C000BEB6001088C43380824222121A262240DC
:1037D0008000020100FF00404242427E42424242DB
:1037E0004000B1DF404042CC00000808887F080854
:1037F00008F800000040201F205048464140485033
:1038000048474000B3A480808080FF8080A09088DB
:1038100084828080800000000000FF4021120408A4
:10382000102020404000BEE0003E22E2223E00FE8A
:103830002222222222E20200203F201F1111007FBB
:103840004444444444474000B2E9404424A4948C96
:1038500084FF848C94A4244440004040405F4A4A42
:103860004A4A4A4A4A5F40404000BFB420222A2ABE
:10387000AA6A3A2E292929292920200008040201B0
:10388000FF555555555555FF00000000000000003C
:1038900000000000000000003EFFC3030303060613
:1038A0000E8CDCF8787030301818181818181818A2
:1038B00030307078F8DC8C0E0606030303C3FF3E3D
:1038C00000000000000000000000000000000000F8
:1038D00000000000000000000000030F9CF8781EAC
:1038E00007030180C0C0C08000000000000000008D
:1038F00080C0C0C0800103070E7CF89C0F0300004D
:1039000000000000000000000000000000000000B7
:103910000000000000000000000000007FFF8000A9
:1039200000000007CFCC0D07030020E0E0200003DB
:10393000070DCCCF070000000080DF1F0000000053
:103940000000000000000000000000000000000077
:103950000000000000000000000080C0E06337BEEF
:10396000F8F0E0C0818307061E3E776363773E1E52
:1039700006078381C0E0F0F8BC3F63E0C080000030
:103980000000000000000000000000000000000037
:10399000000080C0E070381C0E070301000000FF2B
:1039A000FF03070C1D1B3333666666F6F666666614
:1039B00033331B190D0603FFFF0000000103070E40
:1039C0001C3870E0C0800000000000000000000013
:1039D0007EFF830100000000C0F078FCCE06063FA9
:1039E0003F0606ECFC78F0C0001C3E37373E1C005A
:1039F00000E0F078FCCE06077F3E0606EC7C78E01F
:103A0000800000000183FF7E000000000000000035
:103A100000000103030303FFFF000080F0780C0C9B
:103A20000C1CF8F0000083FF7C0000000000000088
:103A3000FFFF0000C0F0380C0C0C1CF8E00000C7C1
:103A4000FF17030303010100000000000000000055
:103A50000000000000000000030F387067CFDCD8C2
:103A6000D8DCEF63381C0F070606060606060604B8
:103A7000070F1E387167CEDCD8D8CC6F63381E0FA5
:103A80000300000000000000000000000000000033
:103A90000000000000000000000000000000000026
:103AA0000000000000000000000000000000000016
:103AB0000000000000000000000000000000000006
:103AC0000000000000000000008080808080808076
:103AD00000000000000000000000000000000000E6
:103AE00000000000000000000000000000000000D6
:103AF000000000000000E0E0C00000000000000046
:103B000000000000000000000000000000000000B5
:103B100000000000000080C0C0C0000000E0F0FC19
:103B2000FEFFFFFFC0C0C0C0C0C0C0C0C0000000DA
:103B30000000000000000000000000000000000085
:103B40000080E0F8FCFEFEE74747470707074747C6
:103B500047E7FEFEFCF8E0800000000000000000E7
:103B600000000000000000000000000060E0F0F035
:103B7000F0F0F0F8FCFFFFFFFFFFFCF8F0F0F0F0D2
:103B8000F0E0600000000000000000000000000005
:103B9000000000000000FFFFFFFF000000FFFFFF2C
:103BA000FFFFFFFFFFFFFFFFFFFFFF1F03000000FE
:103BB0000000000000000000000000000000000005
:103BC000003FFFFFFFFF8180C0FCFE000000FEFC05
:103BD000C08081FFFFFFFF3F0000000000000000E9
:103BE00000000000000000000000000000000103D1
:103BF00007FFFFFFFFFFFFFFFFFFFFFFFFFF0703C1
:103C000001000000000000000000000000000000B3
:103C1000000000000000070F0F0F0000000F0F0F43
:103C20000F0F0F0F0F0F0F0F0F0700000000000006
:103C30000000000000000000000000000000000084
:103C400000000003070F0F1F1F3F3F3C3C3C3F3F5E
:103C50001F1F0F0F070300000000000000000000FE
:103C60000000000000000000000000000000000054
:103C70000F0F0F0707030301030303070F0F0F00C5
:103C80000000000000000000000000000000000034
:103C90000000000000000000000000000000000024
:103CA0000000000000000000000000000000000014
:103CB0000000000000000000000000000000000004
:103CC00000000000000000000000000000000000F4
:103CD00000000000000000000000000000000000E4
:103CE00000000000000000000000000000000000D4
:103CF00000000000000000000000000000000000C4
:103D0000000000000000000000000000FFFFFFFFB7
:103D1000FFFFFFFFFFFFFFFFFFFFFFFFFFFFFFFFB3
:103D2000FFFFFF7F7F3F3F3F3F3F3F7F7FFFFFFF23
:103D3000FFFFFFFFFFFFFF7F7F7F7F7F7F7F7F7F13
:103D40007F7FFFFFFFFFFFFFFFFFFFFFFFFFFFFF83
:103D5000FFFFFFFFFFFFFFFFFFFFFFFFFFFFFFFF73
:103D6000FFFFFFFFFFFFFFFFFFFFFFFFFFFFFFFF63
:103D7000FFFFFFFFFFFFFFFFFFFFFFFFFFFFFFFF53
:103D8000FFFFFFFFFFFFFFFFFFFFFFFFFFFFFFFF43
:103D9000FFFFFFFFFFFFFFFFFFFFFFFFFFFFFFFF33
:103DA0000701000000000000000080E0F0F8F9FDCD
:103DB000FDFF7E7E3E3F7F7F7F7FFFFFFFFFFFFF98
:103DC000FFFFFFFFFF7E7F7D7DFBFBF7E3C18100EF
:103DD00000000101010307071FFFFFFFFFFFFFFFB7
:103DE000FFFFFFFFFFFFFFFFFFFFFFFFFFFFFFFFE3
:103DF000FFFFFFFFFFFFFFFFFFFFFFFFFFFFFFFFD3
:103E0000FFFFFFFFFFFFFFFFFFFFFFFFFFFFFFFFC2
:103E1000FFFFFFFFFFFFFFFFFFFFFFFFFFFFFFFFB2
:103E2000FCF0E0C0800080F0FCFFFFFFFFFFFFFC24
:103E3000F8F0F1F1F1C0CCCCC0E0E0F0F9FDFCFF0E
:103E4000F3E1E1C0C0CCCCFCF0FBFFFFFFFFFFFFC4
:103E5000FEF0C0008080C0E0F0FFFFFFFFFFFFFF2B
:103E6000FFFFFFFFFFFFFFFFFFFFFBE10103073F36
:103E7000010103FFFF3F1F1FFFFFFFFFFFFFFFFFCA
:103E8000FFFFFFFFFFFFFFFFFFFFFFFFFFFFFFFF42
:103E9000FFFFFFFFFFFFFFFFFFFFFFFFFFFFFFFF32
:103EA000FFFFFF7FCFF8FFFFFFFFFFFFFFFFFFFFD9
:103EB000FFFFFFFFFFFFFFFFFFE7EFCFCF8F9F9FCA
:103EC0009F9FCFDFFFFFFFEFEFFFFFFFFFFFFFFF32
:103ED000FFFFFFFEF31FFFFFFFFFFFFFFFFFFFFFDF
:103EE000FFFF3F0701E1F0F8F8F0C1030700000011
:103EF000000000010000001EFFFFFFFFFFFFFFFFAB
:103F0000FFFFFFFFFFFFFFFFFFFFFFFFFFFFFFFFC1
:103F1000FFFFFFFFFFFFFFFFFFFFFFFFFFFFFFFFB1
:103F2000FFFFFFC03FFFFFFFFFFFFFFFFFFFFFFFA0
:103F3000FFFFF9E1811118181819313131393B337C
:103F400033333333330387C7EFFFFFFFFFFFFFFF39
:103F5000FFFFFFFF7FE0FFFFFFFFFFFFFFFFFFFF10
:103F6000FFFFFCF0F0E0E1E1E1E180000000000093
:103F700000000000000080E0FFFFFFFFFFFFFFFFE9
:103F8000FFFFFFFFFFFFFFFFFFFFFFFFFFFFFFFF41
:103F9000FFFFFFFFFFFFFFFFFFFFFFFFFFFFFFFF31
:103FA000FFFFFFFFFFFCFB772F1F1F3F3F7F7F7F40
:103FB0007FFFFFFFFFFFFEEEE6C6CECECECECEEEFB
:103FC000FEFCFCFEFEFFFFFFFFFFFF7F7F7F3F1F2A
:103FD0001F0F070102070F1F3FFFFFFFFFFFFFFF3C
:103FE000FFFFFFFFFFFFFFFFFFFF0F0000000000CC
:103FF0000000000000FFFFFFFFFFFFFFFFFFFFFFCC
:10400000FFFFFFFFFFFFFFFFFFFFFFFFFFFFFFFFC0
:10401000FFFFFFFFFFFFFFFFFFFFFFFFFFFFFFFFB0
:10402000FFFFFF1F07030100000000000000000069
:104030000000000000000000010101010101010178
:104040000101010101010100000000000000000069
:10405000000000000000000000010303070707073D
:10406000070707070707030301000000000000001F
:1040700000000000E0FFFFFFFFFFFFFFFFFFFFFF6B
:10408000FFFFFFFFFFFFFFFFFFFFFFFFFFFFFFFF40
:10409000FFFFFFFFFFFFFFFFFFFFFFFFFFFFFFFF30
:1040A000FFFFF0E0E0C0C0C0C0C0C0C0C0C0C0C022
:1040B000C0C0C0C0C0C0C0C0C0C0C0C0C0C0C0C000
:1040C000C0C0C0C0C0C0C0C0C0C0C0C0C0C0C08030
:1040D00080C0C0C0C0C0C0C0C0C0C0C0C0C0C0C020
:1040E000C0C0C0C0C0C0E0E0E0E0E0E0F0F0F0F848
:1040F000F8FCFEFFFFFFFFFFFFFFFFFFFFFFFFFFDB
:10410000FFFFFFFFFFFFFFFFFFFFFFFF00000000BB
:104110000000000001020304060708090000000077
:10412000010203044441000800000020C000000018
:10413000D001000804420008C0000020F00B00007D
:10414000EC01000800000000010100000000000078
:10415000000001000101010000000000000000005B
:10416000020100000000000000000000010000004B
:10417000000000000000000002000100000000003C
:10418000000000003C0000000000000000000000F3
:10419000000000000000000000000000000000001F
:1041A0003C000000000000000000000000000000D3
:1041B00000000000000000000000000000000000FF
:1041C00000000000000000000000000000000000EF
:1041D00000000000000000000000000000000000DF
:1041E00000000000000000000000000000000000CF
:1041F000000000000024F400010000001000000096
:0442000000000000BA
:040000050800019559
:00000001FF
