:020000040800F2
:10000000500F002029020008BD230008E117000856
:10001000B923000875040008E1350008000000005D
:10002000000000000000000000000000C9320008CD
:10003000790400080000000051310008FD3200087A
:10004000430200084302000843020008430200087C
:10005000430200084302000843020008430200086C
:10006000430200084302000843020008430200085C
:10007000430200084302000843020008430200084C
:10008000430200084302000843020008430200083C
:10009000430200084302000843020008430200082C
:1000A000430200084302000843020008430200081C
:1000B0004302000843020008BD3300084302000861
:1000C00043020008430200084302000843020008FC
:1000D00043020008430200084302000843020008EC
:1000E00043020008430200084302000843020008DC
:1000F00043020008430200084302000843020008CC
:1001000043020008430200084302000843020008BB
:1001100043020008430200084302000843020008AB
:10012000430200084302000843020008430200089B
:10013000430200084302000843020008430200088B
:10014000430200084302000843020008430200087B
:10015000430200084302000843020008430200086B
:10016000430200084302000843020008430200085B
:100170004302000843020008430200080000000098
:10018000430200084302000800F002F800F03CF8C7
:100190000AA090E8000C82448344AAF10107DA45E2
:1001A00001D100F031F8AFF2090EBAE80F0013F0F8
:1001B000010F18BFFB1A43F0010318473842000033
:1001C00058420000103A24BF78C878C1FAD85207C4
:1001D00024BF30C830C144BF04680C6070470000C1
:1001E0000023002400250026103A28BF78C1FBD840
:1001F000520728BF30C148BF0B6070471FB503F0DE
:1002000057FB1FBD10B510BD00F0FEF81146FFF7FB
:10021000F5FF03F03FFA00F01CF903B4FFF7F2FF1B
:1002200003BC00F01FF90000094880470948004757
:10023000FEE7FEE7FEE7FEE7FEE7FEE7FEE7FEE796
:10024000FEE7FEE704480549054A064B70470000F3
:10025000A93300088901000850090020500F002030
:10026000500B0020500B002053EA020C00F0698074
:100270002DE9F04B4FF00006002B1FBFB3FA83F5BA
:1002800003FA05F424FA05F65E4012BF1643B2FAEB
:1002900082F502FA05F4C5F120051EBF22FA05FC1D
:1002A00044EA0C04203556EA044C4FEA144418BFC3
:1002B000641C4FF000084FF00009904271EB030CF2
:1002C00039D3002919BFB1FA81F701FA07F6B0FA5C
:1002D00080F700FA07F6C7F120071EBF20FA07FCD7
:1002E00046EA0C062037B6FBF4FCA7EB0507103FE7
:1002F00007F01F0BCBF120062CFA06F60CFA0BFBCD
:1003000044BFB3460026202FA4BF5E464FF0000B2B
:100310005BEA060C08BF4FF0010B19EB0B0948EB29
:100320000608ABFB027C06FB02CC0BFB03CCC01B1C
:1003300071EB0C01C1E70B46024641464846BDE859
:10034000F08B13B5084318BF4FF0FF300146AFF3F1
:100350000080BDE81C40704702F0FF0343EA03221F
:1003600042EA024200F02CB84FF0000200B51346FA
:1003700094469646203922BFA0E80C50A0E80C50C5
:10038000B1F12001BFF4F7AF090728BFA0E80C5076
:1003900048BF0CC05DF804EB890028BF40F8042B6F
:1003A00008BF704748BF20F8022B11F0804F18BFDC
:1003B00000F8012B70477047704770474FF00002FC
:1003C0000429C0F0128010F0030C3FF4CFAFCCF141
:1003D000040CBCF1020F18BF00F8012BA8BF20F8D5
:1003E000022BA1EB0C01FFF7C1BF5FEAC17C24BF68
:1003F00000F8012B00F8012B48BF00F8012B7047D3
:1004000000487047780000207546FFF7F9FFAE46B8
:1004100005006946534620F00700854618B020B510
:10042000FFF710FFBDE820404FF000064FF0000737
:100430004FF000084FF0000BAC46ACE8C009ACE848
:10044000C009ACE8C009ACE8C00921F007018D463D
:10045000704710B50446AFF300802046BDE8104059
:10046000FFF7DBBE01491820ABBEFEE72600020005
:1004700070470000FEE7000070470000EFF31080B7
:1004800072B600BFFEE7000040F2CE30C2F20000BC
:100490000078704740F2CF30C2F200000078704719
:1004A000B0B5044600F0E8F8054640F27100C2F22B
:1004B00000000078611C18BF044400BF00F0DCF8A5
:1004C000401BA042FAD3B0BD2DE9F04F83B000F13C
:1004D0003E4202F1FF724FEAB22241F6004701921A
:1004E000C4F2020708224FF0010E00254FF0000A67
:1004F0004FF00008B84208BF072200920AE000BF90
:1005000008F101080AF1040AB8F1100F05F102051B
:1005100000F0A2800C680EFA08FB14EA0B09EFD079
:100520004C6804F0030CACF1010EBEF1010F12D8BF
:1005300082680323CE6803FA05F7BA4306FA05F783
:100540003A4382604268C4F3001722EA0B0207FABA
:1005500008F73A434260BCF1030F1CD0C268032382
:100560008E6803FA05F7BA4306FA05F73A43BCF179
:10057000020FC2600FD16FF0030202EA5802024478
:100580000AF01C060F23176A03FA06F40B69A74347
:10059000B3403B431362026803234F68AB409A4366
:1005A00007F00303AB401A43FB004FF0010E02605B
:1005B000A6D5002243F644030292C4F202031A684D
:1005C00043F6004442F480421A601A68C4F20104FF
:1005D00002F480420292029A28F003024FF6084B7E
:1005E0002244CFF6FF7B52F80B300AF00C070F269F
:1005F000BE4023EA060C019B009E072B38BF1E4617
:1006000006FA07F747EA0C0342F80B3022684B68FA
:1006100042EA0907DE0358BF22EA09072760626839
:100620009E0342EA090758BF22EA09076760A268E9
:10063000DE0242EA090758BF22EA0907A76043F62B
:100640000C47C4F201073A689B0242EA090358BF0B
:1006500022EA09033B6053E703B0BDE8F08F0000D6
:100660000069084018BF012070470000002A08BF39
:10067000090481617047000040F64810C2F2000092
:100680000068704770B5B0B3044690F83D0028B9D3
:10069000002084F83C00204600F052F9242084F821
:1006A0003D002068016821F001010160016841F40A
:1006B00000410160016821F40041016000F0ECFAA2
:1006C00048F28041C0F21E0140F60012666888427E
:1006D0004FF00001C0F23D0248F2A16C4FF0000360
:1006E00038BF01219042C0F2010C38BF012366459A
:1006F00038BF0B460BB1012070BD4DF68361C4F2CB
:100700001B31A0FB01122168930C4D68664525F052
:100710003F0545EA92424A600A6A22F03F0C09D33B
:100720004FF496725A4344F6D353C1F26203A2FBCC
:1007300003239B095A1C42EA0C020A6248F2A06396
:10074000CA69C0F201039E424CF6FF7322EA030C11
:100750000AD801387200B0FBF2F001306FF31F309D
:10076000042898BF04202BE0A368A0F1010E9BB1E0
:1007700019207043BEFBF0F00422013062F31F30F9
:10078000000512D09BB119207043BEFBF0F004228B
:10079000013062F31F3011E006EB4600BEFBF0F0C3
:1007A00001306FF31F300005ECD1012008E006EBAB
:1007B0004600BEFBF0F001306FF31F3040F4004004
:1007C00040EA0C00C8610868D4E9072320F0C000A3
:1007D000104318430860886848F2FF3204F10C06A1
:1007E00090434CCE18431043A5698860C86820F038
:1007F000FF0030432843C860086840F001000860EB
:1008000000202021206484F83D10206384F83E00FD
:1008100070BD00002DE9F04383B0994616460F469F
:100820000446FFF729FF94F83D1020290ED102213C
:100830000546C0F21001204601221923009501F05F
:1008400079F818B994F83C00012803D1022003B0CC
:10085000BDE8F0830121226884F83C101368DDE9CB
:100860000B080A99DB0703D1136843F001031360F7
:10087000136823F400631360212284F83D20402292
:1008800084F83E200022226461626085608D3946D2
:1008900020850020CFF6FF70E062204632464B46AE
:1008A000CDF80080019500F0B5FF30B3012003B012
:1008B000BDE8F083204641462A4601F0C1F828BB36
:1008C000606A2168034613F8012B0A61228D636276
:1008D000571E2785638D3F04A3F1010363854B6990
:1008E00018BF13F0040308D0437802300B61606234
:1008F000901E2085608D01386085208D0028D9D11B
:10090000204641462A4600F0E5FF40B1206C04280D
:10091000CCD12068016841F400710160C6E720680D
:10092000016841F400710160202084F83D0000203E
:1009300084F83E0084F83C0003B0BDE8F08300007A
:10094000B0B586B00024CDE90444CDE90244006886
:1009500045F60001C4F200018842019431D045F20D
:100960000041C4F20001884254D1002443F630050E
:100970000094C4F20205286801A940F00200286032
:10098000286800F00200009000984FF4C0700190B9
:100990001220CDE90204032004900420059040F2C7
:1009A0000040C4F20200FFF78FFD0094286940F474
:1009B00000102861286900F400100090009806B02B
:1009C000B0BD43F630050094C4F20205286801A9C1
:1009D00040F002002860286800F0020000900098B3
:1009E0004FF4406001901220CDE9020403200490EE
:1009F0000420059040F20040C4F20200FFF764FDBD
:100A00000094286940F480002861286900F480007F
:100A10000090009806B0B0BD40F2710040F6481159
:100A2000C2F20000C2F2000100780A6810440860B7
:100A30007047000080B543F60040C4F20200016830
:100A400041F400710160016841F480610160016856
:100A500041F480710160032000F064F8032000F08D
:100A600005F800F02BF8002080BD0000B0B540F282
:100A70007102C2F2000240F26C011278C2F200016F
:100A80004FF47A730968B3FBF2F20446B1FBF2F15A
:100A9000084600F03DFC0F2C4FF001050CD858B96A
:100AA0004FF0FF3021460022002500F02BF840F2E5
:100AB0007400C2F2000004602846B0BD80B582B068
:100AC000002043F640010190C4F202014A6842F45A
:100AD00080424A604A6802F480420192019A009082
:100AE000086840F080500860086800F0805000906E
:100AF0000098052000F016F802B080BD80B502F025
:100B000071FD80BD70B514460D46064602F07AFDB3
:100B10002946224601F054FC0146304602F07AFD97
:100B200070BD000080B502F087FD80BD2DE9F04169
:100B3000002800F08B8043F60808C4F2020804463F
:100B4000D8F8F8030D4600F00700884207D288F86D
:100B5000F853D8F8F80300F00700A84276D12068CF
:100B6000810717D5410705D5D8F8001041F4E051A9
:100B7000C8F80010010705D5D8F8001041F460410D
:100B8000C8F80010D8F80010A26821F0F001114355
:100B9000C8F80010C0073FD1D8F8F80300F00700EC
:100BA000A84207D988F8F853D8F8F80300F00700EE
:100BB000A8424BD12068410707D5D8F80010E26859
:100BC00021F4E0511143C8F80010000708D5D8F807
:100BD0000000216920F4604040EAC100C8F800002C
:100BE00000F06CF8D8F8001043F6CA02C1F3031104
:100BF000C0F60002515C40F26C0220FA01F140F2B2
:100C00007400C2F200000068C2F200021160FFF737
:100C10002DFF0020BDE8F0816068811E022907D207
:100C200058F8081C89015CBF0120BDE8F08110E084
:100C3000012807D158F8081C89035CBF0120BDE8D2
:100C4000F08106E058F8081C890702D40120BDE8AD
:100C5000F081D8F8001021F003010843C8F8000023
:100C6000FFF70AFD064641F2883700BFD8F80000BA
:100C7000616800F00C00B0EB810F8DD0FFF7FCFC39
:100C8000801BB842F2D90320BDE8F08140F26C002D
:100C9000C2F200000068704780B5FFF7F7FF43F627
:100CA0000801C4F20201096843F6DA02C1F38221A5
:100CB000C0F60002515CC84080BD000010B543F68C
:100CC0000404C4F20204606800F00C0142F2004027
:100CD0000829C0F2F40007D0042918BF10BD41F262
:100CE0000020C0F27A0010BD216801F03F022168A7
:100CF00023684902C3F3881105D4A1FB0001002336
:100D0000FFF7B2FA06E041F20020C0F27A00484351
:100D1000B0FBF2F021680222C1F3014102EB410174
:100D2000B0FBF1F010BD00002DE9F04182B00028C9
:100D300000F09F800446007843F60006C007C4F226
:100D4000020641D0B06800F00C00042805D13068DC
:100D5000800339D56068B8BB8BE0B06800F00C0048
:100D6000082802D170684002F1D46568B5F5803F6B
:100D700006D03068B5F5A02F06D140F48020306051
:100D8000306840F4803005E020F480303060306816
:100D900020F480203060FFF76FFC002D054610D056
:100DA0003068800310D4FFF767FC401B6428F7D934
:100DB00022E100BFFFF760FC401B64284FF00300F6
:100DC00054D830688003F5D4207880071AD5B068ED
:100DD00010F00C0F09D0B06800F00C00082840F0AB
:100DE0008C807068400200F188803068800702D5EE
:100DF000E06801283DD13068216920F0F80040EA20
:100E0000C10030602078000737D4207840074AD4EA
:100E1000A56955B3B06800F00C00082840F0A08028
:100E2000012D26D07068E16900F480028A4220D149
:100E3000216A00F03F028A421BD147F6C071626A04
:100E40000140B1EB821F14D1A16A4FF6FF73C903B1
:100E5000994300F44032A1F580318A4209D1E16A18
:100E600000F07060B0EB016F03D1002002B0BDE86C
:100E7000F081012002B0BDE8F0816069002840F2F5
:100E80000000C4F247205AD00121C0F8801EFFF7AD
:100E9000F3FB0546706F8007B7D4FFF7EDFB401BEF
:100EA0000228F7D9A8E0306C4FF00008C0000CD43D
:100EB000CDF80480306C4FF0010840F08050306471
:100EC000306C00F080500190019847F20007C4F2A6
:100ED00000073868C00525D4386840F48070386051
:100EE000FFF7CAFB054600BF3868C0051AD4FFF7F4
:100EF000C3FB401B0228F7D97EE0E068002851D0F0
:100F00000020C4F2472001210160FFF7B5FB054630
:100F1000306880073FF56FAFFFF7AEFB401B02283C
:100F2000F6D969E0A568012D05D0306F052D4DD1AA
:100F300040F004003067306F40F001004CE00021C9
:100F4000C0F8801EFFF798FB054600BF706F800752
:100F50007FF55BAFFFF790FB401B0228F6D94BE013
:100F60000027C4F2472700203866FFF785FB022DD3
:100F700005460BD13068800156D5FFF77DFB401B3D
:100F800002284FF00300F5D970E700BF30688001F8
:100F90007FF56BAFFFF770FB401B02284FF003009B
:100FA000F4D963E70020C4F2472000210160FFF775
:100FB00063FB0546306880077FF524AFFFF75CFBD5
:100FC000401B02284FF00300F4D94FE720F0010046
:100FD0003067306F20F004003067FFF74DFB002DC5
:100FE000054641F2883713D0306F800713D4FFF7DE
:100FF00043FB401BB842F7D9032002B0BDE8F081A3
:10100000FFF73AFB401BB8424FF003003FF62EAF0C
:10101000306F8007F4D4B8F1000F3FF4F9AE306CB4
:1010200020F080503064F3E604F11C052FCD084316
:1010300040EA8210D9034FF6FF729143A1F5803147
:1010400040EA05600843706001203866FFF714FB32
:10105000044600BF306880013FF507AFFFF70CFB87
:10106000001B02284FF00300F4D9FFE670B538B139
:101070000446406A30B10020206104F1140007E00A
:10108000012070BD6068B0F5827F03D004F11C00C0
:10109000002101600026A66294F8510020B9204684
:1010A00084F8506000F03CF8022084F8510094E885
:1010B0000F0001F48271056802F4044225F0400536
:1010C0000560114403F400622369114403F0020235
:1010D0006369114403F00102A369E569114403F453
:1010E0000072114405F03802256A114405F08002AF
:1010F000A56A114305F4005211430160626A04219C
:1011000001EA134102F0100211444160C16921F467
:101110000061C1610120666584F85100304670BDF0
:1011200080B586B000220592CDE9032243F6004146
:101130000068C4F2000188420292019201D006B018
:1011400080BD43F630000092C4F20200036943F40C
:1011500000430361036903F400430093009B009282
:10116000036843F004030360006800F0040000908B
:1011700000984FF4E05001900220CDE902020320D4
:1011800004900620059001F5E63001A9FFF79CF9CF
:1011900006B080BD2DE9F04381B0044690F85000C0
:1011A000012803D1022001B0BDE8F0834FF001090E
:1011B0001D4616460F4684F85090FFF75DFA94F8E6
:1011C000511001295DD18046002F4FF0010018BF5A
:1011D000002E00F09580032084F851000020606507
:1011E0002763A686E686A063A087E087A168C4E996
:1011F0001000B1F5004F08D12068016821F04001CE
:101200000160016841F4804101602068016849067D
:1012100003D4016841F0400101606168731EE26817
:10122000B1FA81F1B3FA83F349095B09B2F5006FB2
:1012300041EA030127D139B1216B0988C160B81C8B
:101240002063E08E0138E086E08E002841D06E1CDD
:101250000AE000BF216B31F8022BC2602163E08EEF
:101260000138E086E08EA0B3206881688907F1D458
:10127000FFF702FA002EF5D0A0EB0800A842F1D348
:1012800025E002203CE039B139780173206B013050
:101290002063E08E0138E086E08ED0B16E1C0AE05B
:1012A000216B09780173206B01302063E08E0138D7
:1012B000E086E08E68B1206881688907F0D4FFF786
:1012C000DBF9002EF5D0A0EB0800A842F1D30320F3
:1012D00016E020462946424601F05CFF00281CBF6C
:1012E00020206065A06838B9002000902068C1689F
:1012F0000091806800900098606D002818BF012060
:10130000002184F8519084F8501001B0BDE8F083BA
:1013100080B501F0DBFF80BD704700007047000022
:1013200010B590F83C20012A4FF0020252D0012360
:1013300080F83C3080F83D200268D2F804E0D2F812
:1013400008C00C682EF07003234341F2FF74C4F20E
:101350000004A24253600DDC40F2FF73C4F20003AC
:101360009A4215DCB2F1804F29D040F20043C4F21A
:10137000000322E040F2FF33C4F201039A4212DC80
:1013800041F60003C4F200039A4218D0002312E091
:1013900040F60003C4F200039A4210D040F6004326
:1013A000C4F2000309E044F20003C4F201039A42CC
:1013B00005D040F20043C4F201039A4204D14968C7
:1013C0002CF08003194391600121002280F83D1028
:1013D00080F83C20104610BD002804BF0120704753
:1013E00010B5044690F83D0028B9002084F83C0070
:1013F000204600F01FF8022084F83D002068211DDF
:1014000002F024F8012084F8460084F83E0084F8B5
:101410003F0084F8400084F8410084F8420084F8DA
:10142000430084F8440084F8450084F83D0000201F
:1014300010BD000080B582B0006840F60001C4F223
:101440000001884201D002B080BD0020019043F627
:101450004000C4F202000168002241F00401016072
:101460000068002100F00400019001981E20FFF7A1
:1014700049FB1E20FFF742FB02B080BD90F83D10F3
:1014800001291CBF01207047022180F83D1000682F
:1014900041F2FF72C168C4F20002904241F00101C2
:1014A000C1600DDC40F2FF71C4F20001884215DC1E
:1014B000B0F1804F29D040F20041C4F2000122E097
:1014C00040F2FF31C4F20101884212DC41F6000112
:1014D000C4F20001884218D0002112E040F6000159
:1014E000C4F20001884210D040F60041C4F200016D
:1014F00009E044F20001C4F20101884205D040F243
:101500000041C4F20101884206D1816801F007015F
:10151000062904BF00207047016841F00101016005
:101520000020704710B5044690F83C0001284FF0A9
:10153000020008BF10BD012284F83C2084F83D0061
:1015400020684FF6777382689A4382600A683F2A60
:1015500014DD5F2A18DD602A28D0B2F5005F2DD097
:10156000702A40D1D1E9012CCB68614602F000F825
:101570002068816841F07701816034E01F2A0FDC28
:1015800092B1102A10D02EE0402A23D0502A2AD11E
:101590004B68CA68194601F0FFFF2068502120E01F
:1015A000202A01D0302A1ED111461AE04B68CA68A1
:1015B000194602F003F82068602112E0D1E9012CFD
:1015C000CB68614601F0D4FF2068816841F4804116
:1015D000816008E04B68CA68194601F0DDFF2068A9
:1015E000402101F0D1FF012084F83D00002084F863
:1015F0003C0010BD7047000010B50446006801694A
:10160000890744BFC1685FEA817138D420680169E5
:10161000490744BFC1685FEA41713CD42068016951
:10162000090744BFC1685FEA017141D420680169BC
:10163000C90644BFC1685FEAC16145D42068016939
:10164000C9071CBFC1685FEAC1714AD1206801693E
:10165000090644BFC1685FEA016149D42068016995
:10166000490644BFC1685FEA416148D42068016906
:10167000890644BFC1685FEA816147D410BD6FF03D
:1016800002010161012121778069800745D0204650
:10169000FFF7B0FF47E06FF00401016102212177FD
:1016A000806910F4407F41D02046FFF7A3FF43E05C
:1016B0006FF00801016104212177C06980073ED0E5
:1016C0002046FFF797FF40E06FF01001016108210D
:1016D0002177C06910F4407F3AD02046FFF78AFF97
:1016E0003CE06FF001010161204600F03FF8ADE7FA
:1016F0006FF0800101612046FFF70EFEAEE76FF04C
:1017000040010161204600F069F8AFE76FF0200169
:1017100001612046FFF702FE10BD204600F022F8CE
:10172000204600F021F8002020776FE7204600F0E7
:1017300019F8204600F018F8002020776EE72046C0
:1017400000F010F8204600F00FF8002020776DE739
:10175000204600F007F8204600F006F80020207729
:101760006CE70000704700007047000080B540F251
:10177000D441C2F20001884200D080BD40F6401240
:10178000C2F20002D2E900010023643041F10001FD
:10179000C2E900014FF47A72FEF766FD52EA0300D7
:1017A000EBD140F63410C2F20000016847F6D502D2
:1017B0000131C2F2E9624A4348F637134FEAF202B6
:1017C000C0F241039A42016088BF80BD40F63810E4
:1017D000C2F2000001680131016080BD7047000065
:1017E000FEE700000268516949054FF000010FD57E
:1017F0006FF4806353612022016380F83D2080F8FC
:101800003E10026C42F00402026480F83C10012198
:10181000084670472DE9F04383B0044600680D4642
:1018200001680A9F0B9E41F48071994690460160C1
:1018300020464FF0011100223B46009600F07AF856
:1018400050B120680068C00544BF4FF400702064A8
:10185000032003B0BDE8F083206805F0FE010161BC
:101860000221C0F2010120463A46334600F0A2F8B8
:1018700018B1012003B0BDE8F08300200290206879
:1018800032464169029180693946029002982046A9
:1018900000F0D6F840B1206C0428EAD12068016835
:1018A00041F400710160E4E7B9F1010F0AD020684A
:1018B0004FEA1821016120463946324600F0C0F84F
:1018C0000028E8D120685FFA88F10161002003B0A8
:1018D000BDE8F083F0B581B0044600684069400778
:1018E00024D415460E464F1C04E000BF2068406912
:1018F00040071BD42046FFF775FFA0B9002FF5D095
:10190000FEF7BAFE16B1401BB042EFD900202021ED
:10191000206384F83D1084F83E00216C41F02001E2
:10192000216484F83C00012001B0F0BD002001B02A
:10193000F0BD00002DE9F047DDF820809A461646FC
:10194000814601F47F078CB25D1C00BFD9F800000E
:101950001821B7F5803F08BF14214058224608BF20
:1019600022461040801AB0FA80F04009B0421DD1E2
:10197000002DEBD0FEF780FEBAF1000F03D0A0EBF4
:1019800008005045E2D900202021C9F8300089F82C
:101990003D1089F83E00D9F8401041F02001C9F807
:1019A000401089F83C000120BDE8F0870020BDE828
:1019B000F08700002DE9F04381B098461646814635
:1019C00001F47F078DB2541CD9F800001821B7F537
:1019D000803F08BF142141582A4608BF2A461140BB
:1019E00091420ED0416949050FD4002CECD0FEF78E
:1019F00043FE4FF0200186B1A0EB0800B042E3D9CE
:101A00000BE0002001B0BDE8F083016841F40071F3
:101A100001606FF480614161042100202022C9F837
:101A2000300089F83D2089F83E00D9F84020114364
:101A3000C9F8401089F83C00012001B0BDE8F083EE
:101A4000F0B581B0044600684069000624D415460C
:101A50000E464F1C04E000BF2068406900061BD4FE
:101A60002046FFF7BFFEA0B9002FF5D0FEF704FE19
:101A700016B1401BB042EFD900202021206384F82A
:101A80003D1084F83E00216C41F02001216484F86F
:101A90003C00012001B0F0BD002001B0F0BD00000D
:101AA0002DE9F04381B00F46DDE9089198461646CE
:101AB0000029044663D0012900F0CA80022940F0C1
:101AC0002481216901208847E16801208847E16875
:101AD000002000258847A16801208847216901204E
:101AE0008847E16801208847216900208847A1696B
:101AF00001208847E16800208847A16801208847C5
:101B0000E1680020884700BF207821694000A84094
:101B1000C0B2C0098847E16801208847A169012057
:101B20008847E168002001358847082DECD1A1687D
:101B300000208847216901208847E1680120884703
:101B4000A1690FFA89F94846884760698047E168CA
:101B5000054600208847A16801208847012D40F0F4
:101B6000D980216900208847E168012088472169E0
:101B700001208847A16901208847FF25C6E0216927
:101B800001208847E16801208847E168002000259E
:101B90008847A16801208847216901208847E168BA
:101BA00001208847A16901208847216900208847D2
:101BB000A16905208847E16800208847A1680120C5
:101BC0008847E16800208847207821694000A840C4
:101BD000C0B2C0098847A16901208847E168012097
:101BE0008847A16905208847E168002001358847BA
:101BF000082DE9D1A1680020884721690120884784
:101C0000A16901208847E16801208847A1690FFA8E
:101C100089F94846884760698047E16805460020A1
:101C20008847A16801208847012D40F0AE802169D6
:101C300000208847E16801208847A1690120884782
:101C4000216901208847A16905208847FF255DE0BB
:101C5000216901208847E16801208847E168002068
:101C600000258847A168012088472169012088470D
:101C7000E16801208847216900208847A169022086
:101C80008847E16800208847A16801208847E1680B
:101C900000208847207821694000A840C0B2C009D0
:101CA0008847E16801208847A16902208847E168E8
:101CB000002001358847082DECD1A1680020884715
:101CC000216901208847E16801208847A1690FFA4E
:101CD00089F94846884760698047E16805460020E1
:101CE0008847A16801208847012D40F09380216931
:101CF00000208847E1680120884721690120884742
:101D0000A16902208847FF2500E0012568B201B0E3
:101D1000BDE8F083E16800200025884707FA05F058
:101D2000C0B22169C0098847E16801208847A169DC
:101D300001208847E168002001358847082DEDD152
:101D4000A16800208847216901208847E1680120B7
:101D50008847A1694846884760698047012840F064
:101D60009480E16800208847A168012088472169A4
:101D700000208847E16801208847216901208847C1
:101D8000A16901208847FF25C0E7E1680020002500
:101D9000884700BF07FA05F0C0B22169C00988472B
:101DA000A16901208847E16801208847A1690520D1
:101DB0008847E168002001358847082DEAD1A168ED
:101DC00000208847216901208847A16901208847B0
:101DD000E16801208847A1694846884760698047D3
:101DE000012840F09C80E16800208847A16801201C
:101DF0008847216900208847E16801208847A16958
:101E000001208847216901208847A169052088476A
:101E1000FF257BE7E16800200025884707FA05F0E9
:101E2000C0B22169C0098847E16801208847A169DB
:101E300002208847E168002001358847082DEDD150
:101E4000A16800208847216901208847E1680120B6
:101E50008847A1694846884760698047012840F063
:101E6000B080E16800208847A16801208847216987
:101E700000208847E16801208847216901208847C0
:101E8000A16902208847FF2540E7E16800208847D4
:101E9000A16801208847B8F1000F32D0002500BFAB
:101EA000E16800200027884730782169B840C0B237
:101EB000C0098847E16801208847A1690120884757
:101EC000E168002001378847082FEDD1A168002084
:101ED0008847216901208847E16801208847A16976
:101EE0004846884760698047012800F0B380E16870
:101EF0000020013601358847A16801208847454503
:101F0000CED3216900208847E16801200125884758
:101F1000216901208847A16901208847F6E6E16828
:101F200000208847A16801208847B8F1000F37D00A
:101F3000002500BFE168002000278847307821692C
:101F4000B840C0B2C0098847A16901208847E1684C
:101F500001208847A16905208847E16800200137F2
:101F60008847082FEAD1A16800208847216901200D
:101F70008847A16901208847E16801208847A16955
:101F80004846884760698047012877D0E16800208B
:101F9000013601358847A168012088474545C9D3E6
:101FA000216900208847E168012001258847A1694F
:101FB00001208847216901208847A16905208847B9
:101FC000A4E6E16800208847A16801208847B8F1AD
:101FD000000F31D0002500BFE168002000278847AE
:101FE00030782169B840C0B2C0098847E168012053
:101FF0008847A16902208847E168002001378847A7
:10200000082FEDD1A1680020884721690120884769
:10201000E16801208847A169484688476069804790
:10202000012842D0E1680020013601358847A168C7
:10203000012088474545CFD3216900208847E168C2
:10204000012001258847216901208847A1690220D4
:1020500088475BE6E16800208847A168012088473F
:10206000216900208847E168012088472169012013
:102070008847A16901208847FF2547E6E1680020DD
:102080008847A16801208847216900208847E168C6
:1020900001208847A16901208847216901208847DC
:1020A000A16905208847FF2530E6E16800208847C0
:1020B000A16801208847216900208847E168012044
:1020C0008847216901208847A16902208847FF25A8
:1020D0001CE600002DE9F04190460E46054601F051
:1020E00039F8A96800208847B8F1000F16D00027FA
:1020F000002400BF29680020884730786968A04024
:10210000C0B2C00988472968012088470134082CDB
:10211000F0D10137474506F10106E9D3A96801204E
:102120008847BDE8F0810000B0B50C46054601F0D7
:1021300011F8A968002088472846214601F016F8C2
:10214000A96801208847B0BD2DE9F04F87B000266F
:1021500043F630000696CDE90466CDE902660196A5
:10216000C4F202000168002441F0800101600168AE
:10217000C4F2020401F08001019101990196016805
:1021800004F5006741F0020101600168012201F0DD
:10219000020101910199019601684FF4707541F0B7
:1021A0000401016001684FF0010A01F0040101918E
:1021B00001990196016841F001010160016801F097
:1021C0000101019101990196016841F00801016046
:1021D00000684FF4707100F00800019001983846D3
:1021E000FEF744FA20464FF480710022FEF73EFAD3
:1021F00020464FF400710122FEF738FA04F54069D9
:1022000048463F210122FEF731FA04F58068404636
:1022100060210122FEF72AFACDE9025A02AD4FF001
:10222000030B384629460496CDF814B0FEF74CF956
:102230004FF48070CDE9020A20462946CDE90466B4
:10224000FEF742F94FF40070CDE9020A2046294614
:10225000CDE9046BFEF738F93F200290112403A862
:1022600080E8500848462946FEF72EF9602002A96A
:1022700081E8510840462946FEF726F907B0BDE837
:10228000F08F000080B540F2D43045F20041C2F238
:102290000000C4F2000141F6802200234FF4804C7C
:1022A000C0F2060280E80E00C0E9033CC0E9053335
:1022B000C0E90733FEF7E6F9002808BF80BDFEF746
:1022C000DDF8000080B540F2284045F60001C2F27A
:1022D0000000C4F2000141F6802200234FF4804C3C
:1022E000C0F2060280E80E00C0E9033CC0E90533F5
:1022F000C0E90733FEF7C6F9002808BF80BDFEF726
:10230000BDF8000080B540F27C4043F60041C2F2C7
:102310000000C4F200014FF4827200234FF4007CED
:1023200080E80E000A21C0E90333C0E9053CC3611F
:10233000C0E90833C0E90A31FEF798FE002808BF5B
:1023400080BDFEF79BF8000080B586B040F2D44017
:1023500040F600020021C2F20000C4F20002532342
:102360004FF0630CCDE90411CDE90211CDE9001164
:10237000C0E90023C0E9021C01618161FFF72CF86C
:10238000C0B94FF48050029040F2D440C2F2000035
:1023900002A9FFF7C7F868B90020CDE9000040F2B4
:1023A000D440C2F200006946FEF7BAFF002804BF1D
:1023B00006B080BDFEF762F8FEE70000FEE7000011
:1023C00000F0070080F00703042B28BF04234FF020
:1023D000FF3C03380CFA03F338BF002099438140D7
:1023E0000CFA00F022EA00000843704780B540F282
:1023F000D031C2F2000191F9001040F2000201EB6D
:102400004101C2F2000202EB810189680B6A002BD4
:1024100008BF80BD0138B0FA80F0898C42091846A7
:10242000FEF724F980BD00002DE9F04F89B0174672
:102430008B460646FEF728F8824601F025F9054648
:10244000FEF728F8BAF1000F56D07F2ED8BFBBF1A7
:102450003F0F7ADC04460AEB8A003044012874DB23
:102460000BEBCA00012870DB43F6E20107EB8700A3
:10247000C0F60001084400270190CDE9026BCDE9C8
:10248000054505E0049FDDE9026B0137062F5CD0AE
:10249000052F01D1002003E00198384401F0C2F972
:1024A00007FB0A690022049704E000BF0132082AF2
:1024B000D344E7D0C1072F4608BF2746AC4208BF28
:1024C000002FF3D00024CDE9072000BF09EB04055D
:1024D0005646D846284641463A4601F0A5F9013EFF
:1024E00008F10108F6D101345445EFD10898DDE92F
:1024F0000545079A4010D9E7062ED8BFBBF1780FE3
:1025000023DCA7F1200043F6E2585FFA80F9C0F619
:10251000000808EB09150027EA5D0BEB07013046C0
:1025200001F0B6F90137082FF6D14FEA091008304B
:10253000771C08EB00050026AA5D0BEB0601384668
:1025400001F0A6F90136082EF6D109B0BDE8F08FEA
:1025500010B500F0C5FA40F2D034C2F200040020F9
:10256000207000BF00F026FB00F030FC2078013026
:1025700041B209292070F5DB0020207000F01AFA22
:102580002078013041B209292070F7DB002020704B
:1025900000F0E8FB2078013041B209292070F7DB18
:1025A000002000F007FC00F057FB0020002100F0A5
:1025B00019FB0120012100F03DFB00F0D7F900F0EC
:1025C000C3FB012000F0F6FB00F046FB00200021D9
:1025D00000F008FB0120012100F02CFB00F0C6F9FF
:1025E00000F0B2FB022000F0E5FB00F035FB00201C
:1025F000002100F0F7FA0120012100F01BFB00F0A0
:10260000B5F900F0A1FB032000F0D4FB00F024FB9F
:102610000020002100F0E6FA0020002100F00AFB73
:1026200000F0A4F900F090FB042000F0C3FB00F0E0
:1026300013FB0020002100F0D5FA0020002100F05B
:10264000F9FA00F093F900F07FFB052000F0B2FBEF
:1026500000F002FB0020002100F0C4FA002000215D
:1026600000F0E8FA00F082F900F06EFB062000F0BE
:10267000A1FB00F0F1FA0020002100F0B3FA0020E5
:10268000002100F0D7FA00F071F900F05DFB07209F
:1026900000F090FB00F0E0FA0020002100F0A2FA28
:1026A0000020002100F0C6FA00F060F900F04CFBB9
:1026B000082000F07FFB00F0CFFA0020002100F09E
:1026C00091FA0120012100F0B5FA00F04FF900F075
:1026D0003BFB10BD704700002DE9F04F81B09846DC
:1026E00091460E460746FDF7CFFEE0B3B8F1000F66
:1026F00071D000EB4000A8F101014FEA400A00252B
:102700004FF0000B002400910EE000BF012440F0C8
:102710003000C2B238463146FFF786FE01350BF174
:10272000010BA845574456D06FEA0B004044C1B294
:102730000A2001F06BF8B9FBF0F04CF6CD41CCF675
:10274000CC41A0FB0112D10801EB8101002CA0EBD0
:102750004100DCD10099A942D9DD0028D6D1384604
:1027600031463022D8E7B8F1000F34D0A8F1010B80
:10277000002500244FF0000A0FE000BF4FF0010ACF
:1027800040F03000C2B238463146FFF74DFE013509
:102790000134A84506F108061DD0E0434044C1B20B
:1027A0000A2001F033F8B9FBF0F04CF6CD41CCF63D
:1027B000CC41A0FB0112D10801EB8101BAF1000F5D
:1027C000A0EB4100DCD1AB45DADD0028D6D138469C
:1027D00031462022D9E701B0BDE8F08F80B540F244
:1027E000D031C2F2000191F9001040F2000201EB79
:1027F0004101C2F2000202EB810189680138B0FA9E
:1028000080F2086889885209FDF730FF80BD00001A
:1028100080B540F2D031C2F2000191F9001040F2CF
:10282000000201EB4101C2F2000202EB8101896862
:102830000138B0FA80F2086889885209FDF716FF5E
:1028400080BD00007047000080B540F2D030C2F279
:10285000000090F9000040F2000100EB4000C2F2DD
:10286000000101EB8000816888688989FDF7F8FE26
:1028700080BD000080B540F2D031C2F2000191F974
:10288000001040F2000201EB4101C2F2000202EB33
:10289000810189680138B0FA80F288688989520913
:1028A000FDF7E4FE80BD00007047000080B540F2F7
:1028B000D031C2F2000191F9001040F2000201EBA8
:1028C0004101C2F2000202EB810189680138B0FACD
:1028D00080F2886889895209FDF7C8FE80BD000032
:1028E0002DE9F04F81B090468A468346FDF7CCFD36
:1028F000C8B100EB40014C004FEAC00900265FFA66
:102900008AF75D46F0B218F8002032B30A2A07D0E1
:10291000E8B23946FFF788FD54FA85F50136F1E74C
:10292000CA440136EBE798F80000B0B1002400BFBC
:10293000C2B258465146FFF777FD0134BAF1700F25
:102940000AF1080AE0B2C8BF4FF0000A18F8000008
:10295000C8BF0BF1020B0028EAD101B0BDE8F08F2F
:1029600080B5002000F078FE80BD000080B5FFF744
:10297000F7FF40F2D030C2F2000090F9000000F002
:102980001FFA80BD80B5FDF78BFD80BD70B5044694
:10299000002600BFF5B22846002100F023F92046AA
:1029A0008021402200F032FB8034072D06F1010621
:1029B000F0D370BDB0B540F2D035C2F2000595F944
:1029C000000040F2000400EB4000C2F2000414F8E2
:1029D0002010012944D0002940F0808004EB8000C1
:1029E000417889B98168012208688988FDF73EFE2F
:1029F00095F90000012200EB400004EB80008168A3
:102A000088688989FDF732FE95F9000000EB4000E7
:102A100004EB80008168086918B1898A0022FDF7FB
:102A200025FE95F9000000EB400004EB8002916860
:102A3000886930B1D278898B3C3A18BF0122FDF702
:102A400015FE95F9000000EB400004EB8000816862
:102A5000086A002842D0898C0122FDF707FEB0BD2C
:102A600004EB8000417889B981680122086889886F
:102A7000FDF7FCFD95F90000012200EB400004EB9E
:102A80008000816888688989FDF7F0FD95F900006C
:102A9000012200EB400004EB800081688869898B8B
:102AA000FDF7E4FD95F9000000EB400004EB800029
:102AB0008168086918B1898A0022FDF7D7FD95F968
:102AC000000000EB400004EB80008168086A0028E9
:102AD00008BFB0BD898C0122FDF7C8FDB0BD000064
:102AE00070B540F6000140F2D410C4F20201C2F207
:102AF0000000A1F500620261826102668266C0F890
:102B00008820C0F890200122A0F8CC200222A0F852
:102B1000D4200422A1F58066A0F8F42008220160E8
:102B20004FF4806E81604FF480534FF480754FF402
:102B30000074016286624FF0200C06634026016536
:102B4000816501678167C0F88010C0F8981001F5B1
:102B50008061A0F8FC201022A0F804E08381858227
:102B600084838584A0F82CC08686A0F854E0A0F861
:102B70005C30A0F86450A0F86C40A0F87460A0F835
:102B80007CE0A0F88430A0F88C50A0F89440A0F825
:102B90009C40C0F8C810C0F8D010C0F8F010C0F8C1
:102BA000F810C0F81811A0F81C21C0F82011A0F8E6
:102BB00024C170BD40F2D030C2F2000090F9000094
:102BC00040F2D41200EB8001C2F2000202EBC1011C
:102BD00040F2000200EB4000C2F2000202EB800073
:102BE0008160704710B550380C46C0B2002100F02B
:102BF00067F940F2D030C2F2000090F9000040F2D4
:102C0000000100EB4000C2F2000101EB800080787F
:102C1000012803D040B904F00F0002E004F00F00D7
:102C20000230002100F04CF920091030002100F0A2
:102C300047F910BD10B50C46A021002808BFA121FE
:102C40000846002100F03CF9C0200021002C08BFFC
:102C5000C82000F035F910BD80B5AE20002100F08D
:102C60002FF9A420002100F02BF9A620002100F06C
:102C700027F98120002100F023F9FF20002100F036
:102C80001FF92020002100F01BF90220002100F094
:102C900017F9B020002100F013F940F2D030C2F251
:102CA000000090F9000040F2000100EB4000C2F289
:102CB000000101EB8000807810B1012803D10220CF
:102CC000002100F0FDF81020002100F0F9F840206C
:102CD000002100F0F5F8A820002100F0F1F83F20D5
:102CE000002100F0EDF8D320002100F0E9F80020E9
:102CF000002100F0E5F8DA20002100F0E1F81220D0
:102D0000002100F0DDF8A120002100F0D9F8C82052
:102D1000002100F0D5F8D520002100F0D1F8F020F6
:102D2000002100F0CDF8D920002100F0C9F8F120F1
:102D3000002100F0C5F8DB20002100F0C1F83020B0
:102D4000002100F0BDF880BD80B58D20002100F08D
:102D5000B7F81420002100F0B3F8AF20002100F0F4
:102D6000AFF880BDB0B540F2D034C2F2000494F99F
:102D7000000040F2000500EB4000C2F2000505EB48
:102D8000800081680869002808BFB0BD898A0022D8
:102D9000FDF76CFCC820FFF7F5FD94F90000012257
:102DA00000EB400005EB800081680869898AFDF727
:102DB0005DFCB0BD40F2D031C2F200010870704736
:102DC00080B5FFF7F7FF00F057FD80BDF0B540F28A
:102DD000D030C2F2000090F9000040F2000100EB98
:102DE0004000C2F2000111F82020012A05D01AB9D2
:102DF00001EB8000417859B3F0BD01EB80004178D0
:102E0000002918BFF0BD40F2CD31C2F2000191F9A6
:102E1000002040F23C3342F2DD75C2F2000316019D
:102E2000C0F6000503EB02179D5142F6AD0342F2D6
:102E3000ED3642F2D565C0F60003C0F60006C0F6D6
:102E400000054760501CC7E90136FD600870F0BD01
:102E500040F2CC3CC2F2000CC1789CF9003040F248
:102E6000D80E002908BF3C21C3EBC302C2F2000EFA
:102E70000EF8221042F645010EEB8204C0F6000166
:102E800042F6A90242F6110E42F67505C0F600029E
:102E9000C0F6000EC0F6000542F6490642F2D567BC
:102EA000616004F110014460581CC0F60006C0F6D1
:102EB0000007A260C4F80CE0E0C18CF80000F0BD8F
:102EC00070B584B040F2D036C2F2000696F9002008
:102ED00040F200050C4602EB4201C2F2000515F873
:102EE00021208DF80F00012A23D0002A40F08B808A
:102EF00005EB81008168086A18B1898C0022FDF712
:102F0000B5FB96F9000000EB400005EB8001487826
:102F100001282BD0D0BB486800214FF0020C009153
:102F20000DF10F0221460123CDF804C0FEF7B8FDD4
:102F30002CE005EB81018968A4F14000B0FA80F231
:102F40008869898B5209FDF791FB96F9000000EB27
:102F5000400005EB80004178012926D0002946D1A8
:102F600040689DF80F10FFF7DFF840E04868C97827
:102F700001220DF10F034FF4807CCDE900324900AE
:102F800022460123CDF808C0FDF744FC96F9000065
:102F900000EB400005EB80008168086A98B3898CDB
:102FA0000122FDF763FB04B070BD8168086A18B1A7
:102FB000898C0022FDF75AFB96F900000DF10F01F4
:102FC00000EB400005EB8000406801224FF4807365
:102FD000FEF7E0F896F9000000EB400005EB8000FA
:102FE0008168086A18B1898C0122FDF73FFB96F9C8
:102FF0000000012200EB400005EB80008168886939
:10300000898BFDF733FB04B070BD00002DE9F04162
:1030100084B040F2D038C2F2000898F9003040F293
:1030200000070C4603EB4301C2F2000717F82130FA
:103030000546012B164622D0002B40F0868007EB78
:1030400081008168086A18B1898C0022FDF70EFBA7
:1030500098F9000000EB400007EB80014878012858
:103060002AD0A8BB486800214FF0020C00913146DD
:103070002A462346CDF804C0FEF712FD28E007EBF0
:1030800081018968A6F14000B0FA80F28869898BD5
:103090005209FDF7EBFA98F9000000EB400007EB4E
:1030A00080004178012923D0002942D14068294677
:1030B0002246FFF70FF83CE04868C9784FF4807269
:1030C000029249003246012300950194FDF7A2FBCC
:1030D00098F9000000EB400007EB80008168086A67
:1030E00098B3898C0122FDF7C1FA04B0BDE8F081E4
:1030F0008168086A18B1898C0022FDF7B7FA98F93F
:103100000000294600EB400007EB800040682246A3
:103110004FF48073FEF73EF898F9000000EB400092
:1031200007EB80008168086A18B1898C0122FDF7DD
:103130009DFA98F90000012200EB400007EB8000A7
:1031400081688869898BFDF791FA04B0BDE8F08148
:103150007047000010B58168044601208847616807
:103160000120884721680120884710BD70B50C46B2
:103170000546002629680020884704FA06F0C0B2F8
:103180006968C00988472968012088470136082EE8
:10319000F0D170BD10B582B040F26C03C2F20003F2
:1031A0001B6849F68174C1F25E64A3FB043C0446CB
:1031B0004FEA5C504FF47A73584301906068B0F561
:1031C000827F0DD113460A462046802100F014F874
:1031D00078B1606D40F020006065032002B010BD42
:1031E000019830B10198013801902068806800068C
:1031F000F6D4002002B010BD2DE9F04381B01E4688
:1032000090460D468146FDF737FA301A00EB080765
:10321000FDF732FA40F26C01C2F200010968C1F315
:10322000CB3179430091D9F8001089682940A9422F
:1032300019D1064608F1010406E000BFD9F80000E4
:1032400080682840A8420ED1002CF7D0FDF714FA70
:10325000801BB8420BD200980099002808BF07468F
:10326000481E0090EAE7002001B0BDE8F083D9E9EC
:1032700000014268B1F5827F22F0E00242600BD18A
:10328000D9F80810B1F5004F02D0B1F5806F03D125
:10329000016821F040010160D9F82810B1F5005F04
:1032A00007D1016821F400510160016841F4005127
:1032B0000160012089F85100002089F850000320A6
:1032C00001B0BDE8F083000070470000B0B50138E0
:1032D0000024B4EB106F1CBF0120B0BD4EF21005EE
:1032E000CEF2000568604FF0FF300F2100F092F938
:1032F0000720AC6028602046B0BD000080B5FDF717
:103300008BFB80BD70B592B006AC20463021FDF736
:103310002BF8002543F640000595CDE90355CDE98E
:1033200001550095C4F202000168022641F0805167
:103330000160006800F080500090009847F20000A3
:103340000095C4F20000016841F48041016000680A
:10335000A82100F4804000900098012006904FF4CE
:10336000803007904FF480000D9004200C960E9052
:10337000CDE90F1611902046FDF7D6FC88B90F2035
:10338000CDE901064FF4A05004904FF48050059011
:1033900001A805210395FDF7C9FB002804BF12B061
:1033A00070BDFDF76BF800004EF68850CEF20000BD
:1033B000016841F4700101607047000080B540F27F
:1033C000D440C2F20000FEF717F980BD137843B96C
:1033D00040F63413C2F200031B680B60137801330C
:1033E000137092F800C0BCF1010F08D140F63413FD
:1033F000C2F200031B680968591A814201D20020F9
:103400007047ACF10100107001207047137843B988
:1034100040F63813C2F200031B680B6013780133C7
:10342000137092F800C0BCF1010F08D140F63813B8
:10343000C2F200031B680968591A814201D20020B8
:103440007047ACF1010010700120704710B540F6D4
:10345000FF3E0368C4F2000E40F2004C7045C4F217
:10346000010C0FDCB0F1804F19D040F20042C4F2E1
:103470000002904213D040F60002C4F200029042D3
:103480000DD010E040F60042C4F20002904206D097
:10349000604504D00022C4F20102904203D14A6880
:1034A00023F07003134341F6FF72C4F2000290420E
:1034B0000DDC70451FDCB0F1804F41D040F200427E
:1034C000C4F2000290423BD040F6000221E043F6F5
:1034D000FF72C4F20102904220DC42F20002C4F208
:1034E000000290422CD00022C4F20102904227D068
:1034F000604525D028E040F60042C4F20002904228
:103500001ED041F60002C4F20002904218D041F6EB
:103510000042C4F20002904212D015E044F20002D0
:10352000C4F2010290420BD044F60002C4F2010240
:10353000904205D044F20042C4F20102904203D10D
:10354000CA6823F44073134323F080024B69D1F817
:1035500000E08C681A430260C46240F48062C0F8E4
:1035600028E0624504BF096901630121416110BD82
:10357000D0F808C011432CF47F4C41EA032141EA02
:103580000C01816070470000826822F070021143D4
:1035900041F0070181607047D0F820C0036A23F032
:1035A00001030362836923F0F00343EA02122CF063
:1035B0000A0319438261016270470000036A23F025
:1035C000100303628369D0F820C023F4704343EAF8
:1035D00002322CF0A00343EA0111826101627047BC
:1035E000FEE70000002848BF704700F01F010122DD
:1035F00002FA01F14EF200124009CEF2000242F846
:10360000201070474EF60C50CEF200000068C0F358
:10361000022070474EF6145300F00F02CEF2000362
:1036200009011A4400F16043B0F1FF3FC8BF03F540
:1036300064421170704700004EF60C51CEF200014A
:103640000A684FF6FF031A4060F30A2242F08060D6
:1036500040F0FD700860704710B5044600F00CF8AB
:1036600040F23351C2F2000101EB80204FF480613F
:103670002246FCF771FE10BD40F2D130C2F20000CC
:1036800090F900007047000040F27000C2F20000A4
:1036900000787047FDF7CEF9FFF734FEFEF754FDD2
:1036A000FEF730FEFEF7EEFDFEF70CFEFEF74CFED9
:1036B00040F2D440C2F20000FDF7E0FEFEF748FF02
:1036C00040F2205440F22E5540F2325A40F2245B30
:1036D00040F22F5740F21C5840F22C59C2F200041D
:1036E000C2F20005C2F2000AC2F2000BC2F20007E9
:1036F000C2F20008C2F200090A2021462A46FFF75A
:1037000065FE0128F8D10A2021462A46FFF75EFE11
:103710009AF80000594600284FF00B003A4618BFAF
:103720000420FFF773FE012813D19AF800005946D0
:1037300000284FF00B003A4618BF0420FFF766FE42
:1037400098F80000012121EA000088F800008AF8BA
:10375000000098F8000040F2285140F2305280F00A
:103760000100C2F20001C2F20002FFF74FFE98F81A
:103770000010064681F0010011B100260CE000BFE8
:10378000012E09D140F2285140F23052C2F200011C
:10379000C2F20002FFF73AFE012EADD10020FFF782
:1037A0005BFF0020002115A2FFF79AF8B9F800206E
:1037B000022000210323FEF78FFF0020FFF700FB0C
:1037C0000120FFF7FDFA0220FFF7FAFA0320FFF7C6
:1037D000F7FA0420FFF7F4FA0520FFF7F1FA0620C4
:1037E000FFF7EEFA0720FFF7EBFA0820FFF7E8FAF9
:1037F000B9F800000130A9F800007DE748454C4CBD
:103800004F20574F524C442100000000002904BFB4
:10381000012070470246012001390B0602FB00F02F
:10382000FAD1704700787047F0B581B07F2821DC6D
:103830000E463F291EDC044606F00700012115460E
:1038400001FA00F7FFF718FFF11706EB51716FF05F
:10385000700202EA011140F23352C2F2000202EB9E
:1038600080200844015D002D41EA070208BF21EADB
:103870000702025501B0F0BD80B5FFF7FDFE40F232
:103880003351C2F2000101EB8020FFF77FF880BDC9
:1038900070B514460D460646FFF7EEFE40F2335172
:1038A000C2F2000101EB802000EBC610445570BD50
:1038B000F1EE100A4FF6FF71C0F2C03120EA0100AC
:1038C00040F04070E1EE100A704700000000000078
:1038D00000000102030406070809000000000102BD
:1038E000030400000000003E5B4F5B3E3E6B4F6BED
:1038F0003E1C3E7C3E1C183C7E3C181C577D571CD1
:103900001C5E7F5E1C00183C1800FFE7C3E7FF0049
:1039100018241800FFE7DBE7FF30483A060E262997
:10392000792926407F050507407F05253F5A3CE75A
:103930003C5A7F3E1C1C08081C1C3E7F14227F2220
:10394000145F5F005F5F06097F017F006689956AEB
:10395000606060606094A2FFA29408047E04081076
:10396000207E201008082A1C08081C2A08081E109F
:103970001010100C1E0C1E0C30383E3830060E3E57
:103980000E06000000000000005F000000070007B6
:1039900000147F147F14242A7F2A122313086462E0
:1039A00036495620500008070300001C2241000041
:1039B00041221C002A1C7F1C2A08083E080800809F
:1039C0007030000808080808000060600020100837
:1039D00004023E5149453E00427F40007249494938
:1039E000462141494D331814127F1027454545396A
:1039F0003C4A49493141211109073649494936466E
:103A00004949291E0000140000004034000000084D
:103A100014224114141414140041221408020159F0
:103A200009063E415D594E7C1211127C7F4949497D
:103A3000363E414141227F4141413E7F4949494112
:103A40007F090909013E414151737F0808087F0041
:103A5000417F41002040413F017F081422417F40C7
:103A60004040407F021C027F7F0408107F3E41419E
:103A7000413E7F090909063E4151215E7F0919290E
:103A800046264949493203017F01033F4040403FF8
:103A90001F2040201F3F4038403F63140814630339
:103AA000047804036159494D43007F4141410204B8
:103AB000081020004141417F0402010204404040BF
:103AC0004040000307080020545478407F284444B5
:103AD000383844444428384444287F3854545418CF
:103AE00000087E090218A4A49C787F0804047800CA
:103AF000447D40002040403D007F102844000041AC
:103B00007F40007C047804787C08040478384444BE
:103B10004438FC1824241818242418FC7C080404B5
:103B200008485454542404043F44243C4040207C1E
:103B30001C2040201C3C4030403C44281028444C71
:103B40009090907C4464544C44000836410000003E
:103B5000770000004136080002010204023C2623DF
:103B6000263C1EA1A161123A4040207A3854545597
:103B70005921555579412154547841215554784063
:103B800020545579400C1E527212395555555939E9
:103B90005454545939555454580000457C4100023E
:103BA000457D420001457C40F0292429F0F028257C
:103BB00028F07C545545002054547C547C0A097FDD
:103BC0004932494949323248484832324A484830F5
:103BD0003A4141217A3A42402078009DA0A07D39A7
:103BE000444444393D4040403D3C24FF2424487E29
:103BF0004943662B2FFC2F2BFF0929F620C0887E16
:103C0000090320545479410000447D413048484A1A
:103C100032384040227A007A0A0A727D0D19317DCD
:103C20002629292F28262929292630484D402038A1
:103C30000808080808080808382F10C8ACBA2F1060
:103C40002834FA00007B000008142A142222142AC7
:103C500014089500220095AA005500AAAA55AA5555
:103C6000AA000000FF00101010FF00141414FF0041
:103C70001010FF00FF1010F010F0141414FC0014CA
:103C800014F700FF0000FF00FF1414F404FC1414E8
:103C900017101F10101F101F1414141F00101010E5
:103CA000F0000000001F101010101F10101010F076
:103CB00010000000FF101010101010101010FF1056
:103CC000000000FF140000FF00FF00001F1017009D
:103CD00000FC04F414141710171414F404F4000076
:103CE000FF00F714141414141414F700F714141428
:103CF000171410101F101F141414F4141010F010C7
:103D0000F000001F101F0000001F14000000FC1432
:103D10000000F010F01010FF10FF141414FF141026
:103D200010101F00000000F010FFFFFFFFFFF0F079
:103D3000F0F0F0FFFFFF0000000000FFFF0F0F0F8B
:103D40000F0F38444438447C2A2A3E147E0202066F
:103D500006027E027E0263554941633844443C04B6
:103D6000407E201E2006027E020299A5E7A5991C2E
:103D70002A492A1C4C7201724C304A4D4D30304851
:103D8000784830BC625A463D3E494949007E0101AF
:103D9000017E2A2A2A2A2A44445F444440514A4444
:103DA0004040444A51400000FF0103E080FF000012
:103DB00008086B6B083612362436060F090F06000A
:103DC0000018180000001010003040FF0101001F13
:103DD00001011E00191D1712003C3C3C3C00000074
:103DE00000000000000000000000000000000000D3
:103DF0000000000000F80000000000000033300068
:103E0000000000100C06100C06000000000000006E
:103E1000000040C07840C0784000043F04043F04E4
:103E20000400007088FC08300000001820FF211EEC
:103E30000000F008F000E018000000211C031E2123
:103E40001E0000F00888700000001E21232419279E
:103E5000211010160E0000000000000000000000FD
:103E60000000000000E01804020000000007182015
:103E7000400000020418E000000000402018070085
:103E80000000404080F0804040000202010F01022B
:103E90000200000000F0000000000101011F01010C
:103EA0000100000000000000000080B07000000071
:103EB00000000000000000000000000101010101FD
:103EC0000101000000000000000000303000000090
:103ED0000000000000008060180400601806010067
:103EE000000000E010080810E000000F1020201073
:103EF0000F00001010F8000000000020203F2020DC
:103F00000000007008080888700000302824222172
:103F10003000003008888848300000182020201128
:103F20000E000000C02010F8000000070424243F09
:103F3000240000F8088888080800001921202011B2
:103F40000E0000E0108888180000000F11202011DA
:103F50000E0000380808C83808000000003F0000C4
:103F600000000070880808887000001C22212122AF
:103F70001C0000E010080810E000000031222211AF
:103F80000F00000000C0C000000000000030300042
:103F900000000000008000000000000080600000C1
:103FA00000000000804020100800000102040810FA
:103FB0002000404040404040400004040404040409
:103FC00004000008102040800000002010080402B7
:103FD0000100007048080808F000000000303601B9
:103FE0000000C030C828E810E00007182724231478
:103FF0000B000000C038E0000000203C2302022734
:10400000382008F8888888700000203F2020201180
:104010000E00C030080808083800071820202010BB
:10402000080008F808080810E000203F20202010B1
:104030000F0008F88888E8081000203F202023207F
:10404000180008F88888E8081000203F20000300C6
:104050000000C03008080838000007182020221E81
:10406000020008F808000008F808203F210101219B
:104070003F20000808F8080800000020203F20200A
:10408000000000000808F8080800C08080807F0059
:10409000000008F888C028180800203F20012638B2
:1040A000200008F8080000000000203F2020202009
:1040B000300008F8F800F8F80800203F003F003F03
:1040C000200008F830C00008F808203F200007183A
:1040D0003F00E01008080810E0000F10202020101A
:1040E0000F0008F808080808F000203F210101012E
:1040F0000000E01008080810E0000F1824243850D1
:104100004F0008F8888888887000203F2000030C42
:10411000302000708808080838000038202121224B
:104120001C00180808F8080818000000203F2000AC
:10413000000008F808000008F808001F20202020D0
:104140001F000878880000C83808000007380E01F2
:104150000000F80800F80008F800033C0700073CDE
:104160000300081868808068180820302C03032C8E
:1041700030200838C800C83808000000203F200060
:10418000000010080808C838080020382621202020
:104190001800000000FE020202000000007F404004
:1041A0004000000C30C00000000000000001063894
:1041B000C00000020202FE000000004040407F00FC
:1041C00000000000040202020400000000000000E1
:1041D00000000000000000000000808080808080DF
:1041E00080800002020400000000000000000000C7
:1041F000000000008080808000000019242222221C
:104200003F2008F8008080000000003F11202011AE
:104210000E000000008080800000000E1120202091
:104220001100000000808088F800000E112020108E
:104230003F200000808080800000001F2222222278
:104240001300008080F0888888180020203F2020FC
:1042500000000000808080808000006B9494949324
:10426000600008F8008080800000203F21000020CE
:104270003F2000809898000000000020203F202070
:104280000000000000809898000000C08080807FBF
:10429000000008F8000080808000203F24022D30BC
:1042A0002000000808F8000000000020203F202027
:1042B00000008080808080808000203F20003F20A0
:1042C000003F8080008080800000203F210000208F
:1042D0003F200000808080800000001F20202020E0
:1042E0001F00808000808000000080FFA12020113E
:1042F0000E000000008080808000000E112020A0B1
:10430000FF80808080008080800020203F2120006E
:104310000100000080808080800000332424242459
:104320001900008080E0808000000000001F202035
:1043300000008080000000808000001F20202010EE
:104340003F20808080000080808000010E300806C1
:10435000010080800080008080800F300C030C30D2
:104360000F0000808000808080000020312E0E3100
:104370002000808080000080808080818E70180600
:10438000010000808080808080000021302C22216C
:10439000300000000000807C020200000000003FAE
:1043A000404000000000FF00000000000000FF008F
:1043B00000000002027C800000000040403F00003E
:1043C00000000006010102020404000000000000D9
:1043D0000000000806FF06080000000000030000BF
:1043E0000000000000C000000000001060FF60102E
:1043F00000000000184400080000002078000000C1
:10440000C40100089044000878000020D80E000085
:10441000E0010008000000000101003C7C040020D5
:10442000000000000000003C000000000000000050
:104430000101003C7C040020000000000101013C5F
:104440007C040020000000000001013CD403002097
:10445000000000000000003C000000000000000020
:104460000000003C00000000000000000000013CD3
:1044700000000000000000000001003C28040020B3
:10448000000000000024F400010100001000000002
:040000050800018965
:00000001FF
